{"@account-abstraction/contracts/core/EntryPoint.sol":{"EntryPoint":{"abi":[{"inputs":[{"internalType":"bool","name":"success","type":"bool"},{"internalType":"bytes","name":"ret","type":"bytes"}],"name":"DelegateAndRevert","type":"error"},{"inputs":[{"internalType":"uint256","name":"opIndex","type":"uint256"},{"internalType":"string","name":"reason","type":"string"}],"name":"FailedOp","type":"error"},{"inputs":[{"internalType":"uint256","name":"opIndex","type":"uint256"},{"internalType":"string","name":"reason","type":"string"},{"internalType":"bytes","name":"inner","type":"bytes"}],"name":"FailedOpWithRevert","type":"error"},{"inputs":[{"internalType":"bytes","name":"returnData","type":"bytes"}],"name":"PostOpReverted","type":"error"},{"inputs":[],"name":"ReentrancyGuardReentrantCall","type":"error"},{"inputs":[{"internalType":"address","name":"sender","type":"address"}],"name":"SenderAddressResult","type":"error"},{"inputs":[{"internalType":"address","name":"aggregator","type":"address"}],"name":"SignatureValidationFailed","type":"error"},{"anonymous":false,"inputs":[{"indexed":true,"internalType":"bytes32","name":"userOpHash","type":"bytes32"},{"indexed":true,"internalType":"address","name":"sender","type":"address"},{"indexed":false,"internalType":"address","name":"factory","type":"address"},{"indexed":false,"internalType":"address","name":"paymaster","type":"address"}],"name":"AccountDeployed","type":"event"},{"anonymous":false,"inputs":[],"name":"BeforeExecution","type":"event"},{"anonymous":false,"inputs":[{"indexed":true,"internalType":"address","name":"account","type":"address"},{"indexed":false,"internalType":"uint256","name":"totalDeposit","type":"uint256"}],"name":"Deposited","type":"event"},{"anonymous":false,"inputs":[{"indexed":true,"internalType":"bytes32","name":"userOpHash","type":"bytes32"},{"indexed":true,"internalType":"address","name":"sender","type":"address"},{"indexed":false,"internalType":"uint256","name":"nonce","type":"uint256"},{"indexed":false,"internalType":"bytes","name":"revertReason","type":"bytes"}],"name":"PostOpRevertReason","type":"event"},{"anonymous":false,"inputs":[{"indexed":true,"internalType":"address","name":"aggregator","type":"address"}],"name":"SignatureAggregatorChanged","type":"event"},{"anonymous":false,"inputs":[{"indexed":true,"internalType":"address","name":"account","type":"address"},{"indexed":false,"internalType":"uint256","name":"totalStaked","type":"uint256"},{"indexed":false,"internalType":"uint256","name":"unstakeDelaySec","type":"uint256"}],"name":"StakeLocked","type":"event"},{"anonymous":false,"inputs":[{"indexed":true,"internalType":"address","name":"account","type":"address"},{"indexed":false,"internalType":"uint256","name":"withdrawTime","type":"uint256"}],"name":"StakeUnlocked","type":"event"},{"anonymous":false,"inputs":[{"indexed":true,"internalType":"address","name":"account","type":"address"},{"indexed":false,"internalType":"address","name":"withdrawAddress","type":"address"},{"indexed":false,"internalType":"uint256","name":"amount","type":"uint256"}],"name":"StakeWithdrawn","type":"event"},{"anonymous":false,"inputs":[{"indexed":true,"internalType":"bytes32","name":"userOpHash","type":"bytes32"},{"indexed":true,"internalType":"address","name":"sender","type":"address"},{"indexed":true,"internalType":"address","name":"paymaster","type":"address"},{"indexed":false,"internalType":"uint256","name":"nonce","type":"uint256"},{"indexed":false,"internalType":"bool","name":"success","type":"bool"},{"indexed":false,"internalType":"uint256","name":"actualGasCost","type":"uint256"},{"indexed":false,"internalType":"uint256","name":"actualGasUsed","type":"uint256"}],"name":"UserOperationEvent","type":"event"},{"anonymous":false,"inputs":[{"indexed":true,"internalType":"bytes32","name":"userOpHash","type":"bytes32"},{"indexed":true,"internalType":"address","name":"sender","type":"address"},{"indexed":false,"internalType":"uint256","name":"nonce","type":"uint256"}],"name":"UserOperationPrefundTooLow","type":"event"},{"anonymous":false,"inputs":[{"indexed":true,"internalType":"bytes32","name":"userOpHash","type":"bytes32"},{"indexed":true,"internalType":"address","name":"sender","type":"address"},{"indexed":false,"internalType":"uint256","name":"nonce","type":"uint256"},{"indexed":false,"internalType":"bytes","name":"revertReason","type":"bytes"}],"name":"UserOperationRevertReason","type":"event"},{"anonymous":false,"inputs":[{"indexed":true,"internalType":"address","name":"account","type":"address"},{"indexed":false,"internalType":"address","name":"withdrawAddress","type":"address"},{"indexed":false,"internalType":"uint256","name":"amount","type":"uint256"}],"name":"Withdrawn","type":"event"},{"inputs":[{"internalType":"uint32","name":"unstakeDelaySec","type":"uint32"}],"name":"addStake","outputs":[],"stateMutability":"payable","type":"function"},{"inputs":[{"internalType":"address","name":"account","type":"address"}],"name":"balanceOf","outputs":[{"internalType":"uint256","name":"","type":"uint256"}],"stateMutability":"view","type":"function"},{"inputs":[{"internalType":"address","name":"target","type":"address"},{"internalType":"bytes","name":"data","type":"bytes"}],"name":"delegateAndRevert","outputs":[],"stateMutability":"nonpayable","type":"function"},{"inputs":[{"internalType":"address","name":"account","type":"address"}],"name":"depositTo","outputs":[],"stateMutability":"payable","type":"function"},{"inputs":[{"internalType":"address","name":"","type":"address"}],"name":"deposits","outputs":[{"internalType":"uint256","name":"deposit","type":"uint256"},{"internalType":"bool","name":"staked","type":"bool"},{"internalType":"uint112","name":"stake","type":"uint112"},{"internalType":"uint32","name":"unstakeDelaySec","type":"uint32"},{"internalType":"uint48","name":"withdrawTime","type":"uint48"}],"stateMutability":"view","type":"function"},{"inputs":[{"internalType":"address","name":"account","type":"address"}],"name":"getDepositInfo","outputs":[{"components":[{"internalType":"uint256","name":"deposit","type":"uint256"},{"internalType":"bool","name":"staked","type":"bool"},{"internalType":"uint112","name":"stake","type":"uint112"},{"internalType":"uint32","name":"unstakeDelaySec","type":"uint32"},{"internalType":"uint48","name":"withdrawTime","type":"uint48"}],"internalType":"struct IStakeManager.DepositInfo","name":"info","type":"tuple"}],"stateMutability":"view","type":"function"},{"inputs":[{"internalType":"address","name":"sender","type":"address"},{"internalType":"uint192","name":"key","type":"uint192"}],"name":"getNonce","outputs":[{"internalType":"uint256","name":"nonce","type":"uint256"}],"stateMutability":"view","type":"function"},{"inputs":[{"internalType":"bytes","name":"initCode","type":"bytes"}],"name":"getSenderAddress","outputs":[],"stateMutability":"nonpayable","type":"function"},{"inputs":[{"components":[{"internalType":"address","name":"sender","type":"address"},{"internalType":"uint256","name":"nonce","type":"uint256"},{"internalType":"bytes","name":"initCode","type":"bytes"},{"internalType":"bytes","name":"callData","type":"bytes"},{"internalType":"bytes32","name":"accountGasLimits","type":"bytes32"},{"internalType":"uint256","name":"preVerificationGas","type":"uint256"},{"internalType":"bytes32","name":"gasFees","type":"bytes32"},{"internalType":"bytes","name":"paymasterAndData","type":"bytes"},{"internalType":"bytes","name":"signature","type":"bytes"}],"internalType":"struct PackedUserOperation","name":"userOp","type":"tuple"}],"name":"getUserOpHash","outputs":[{"internalType":"bytes32","name":"","type":"bytes32"}],"stateMutability":"view","type":"function"},{"inputs":[{"components":[{"components":[{"internalType":"address","name":"sender","type":"address"},{"internalType":"uint256","name":"nonce","type":"uint256"},{"internalType":"bytes","name":"initCode","type":"bytes"},{"internalType":"bytes","name":"callData","type":"bytes"},{"internalType":"bytes32","name":"accountGasLimits","type":"bytes32"},{"internalType":"uint256","name":"preVerificationGas","type":"uint256"},{"internalType":"bytes32","name":"gasFees","type":"bytes32"},{"internalType":"bytes","name":"paymasterAndData","type":"bytes"},{"internalType":"bytes","name":"signature","type":"bytes"}],"internalType":"struct PackedUserOperation[]","name":"userOps","type":"tuple[]"},{"internalType":"contract IAggregator","name":"aggregator","type":"address"},{"internalType":"bytes","name":"signature","type":"bytes"}],"internalType":"struct IEntryPoint.UserOpsPerAggregator[]","name":"opsPerAggregator","type":"tuple[]"},{"internalType":"address payable","name":"beneficiary","type":"address"}],"name":"handleAggregatedOps","outputs":[],"stateMutability":"nonpayable","type":"function"},{"inputs":[{"components":[{"internalType":"address","name":"sender","type":"address"},{"internalType":"uint256","name":"nonce","type":"uint256"},{"internalType":"bytes","name":"initCode","type":"bytes"},{"internalType":"bytes","name":"callData","type":"bytes"},{"internalType":"bytes32","name":"accountGasLimits","type":"bytes32"},{"internalType":"uint256","name":"preVerificationGas","type":"uint256"},{"internalType":"bytes32","name":"gasFees","type":"bytes32"},{"internalType":"bytes","name":"paymasterAndData","type":"bytes"},{"internalType":"bytes","name":"signature","type":"bytes"}],"internalType":"struct PackedUserOperation[]","name":"ops","type":"tuple[]"},{"internalType":"address payable","name":"beneficiary","type":"address"}],"name":"handleOps","outputs":[],"stateMutability":"nonpayable","type":"function"},{"inputs":[{"internalType":"uint192","name":"key","type":"uint192"}],"name":"incrementNonce","outputs":[],"stateMutability":"nonpayable","type":"function"},{"inputs":[{"internalType":"bytes","name":"callData","type":"bytes"},{"components":[{"components":[{"internalType":"address","name":"sender","type":"address"},{"internalType":"uint256","name":"nonce","type":"uint256"},{"internalType":"uint256","name":"verificationGasLimit","type":"uint256"},{"internalType":"uint256","name":"callGasLimit","type":"uint256"},{"internalType":"uint256","name":"paymasterVerificationGasLimit","type":"uint256"},{"internalType":"uint256","name":"paymasterPostOpGasLimit","type":"uint256"},{"internalType":"uint256","name":"preVerificationGas","type":"uint256"},{"internalType":"address","name":"paymaster","type":"address"},{"internalType":"uint256","name":"maxFeePerGas","type":"uint256"},{"internalType":"uint256","name":"maxPriorityFeePerGas","type":"uint256"}],"internalType":"struct EntryPoint.MemoryUserOp","name":"mUserOp","type":"tuple"},{"internalType":"bytes32","name":"userOpHash","type":"bytes32"},{"internalType":"uint256","name":"prefund","type":"uint256"},{"internalType":"uint256","name":"contextOffset","type":"uint256"},{"internalType":"uint256","name":"preOpGas","type":"uint256"}],"internalType":"struct EntryPoint.UserOpInfo","name":"opInfo","type":"tuple"},{"internalType":"bytes","name":"context","type":"bytes"}],"name":"innerHandleOp","outputs":[{"internalType":"uint256","name":"actualGasCost","type":"uint256"}],"stateMutability":"nonpayable","type":"function"},{"inputs":[{"internalType":"address","name":"","type":"address"},{"internalType":"uint192","name":"","type":"uint192"}],"name":"nonceSequenceNumber","outputs":[{"internalType":"uint256","name":"","type":"uint256"}],"stateMutability":"view","type":"function"},{"inputs":[{"internalType":"bytes4","name":"interfaceId","type":"bytes4"}],"name":"supportsInterface","outputs":[{"internalType":"bool","name":"","type":"bool"}],"stateMutability":"view","type":"function"},{"inputs":[],"name":"unlockStake","outputs":[],"stateMutability":"nonpayable","type":"function"},{"inputs":[{"internalType":"address payable","name":"withdrawAddress","type":"address"}],"name":"withdrawStake","outputs":[],"stateMutability":"nonpayable","type":"function"},{"inputs":[{"internalType":"address payable","name":"withdrawAddress","type":"address"},{"internalType":"uint256","name":"withdrawAmount","type":"uint256"}],"name":"withdrawTo","outputs":[],"stateMutability":"nonpayable","type":"function"},{"stateMutability":"payable","type":"receive"}],"evm":{"bytecode":{"linkReferences":{},"object":"60a0604052604051620000129062000055565b604051809103906000f0801580156200002f573d6000803e3d6000fd5b506001600160a01b03166080523480156200004957600080fd5b50600160025562000063565b6102208062003bbd83390190565b608051613b376200008660003960008181610f910152612aad0152613b376000f3fe60806040526004361061012c5760003560e01c806370a08231116100a5578063b760faf911610074578063c23a5cea11610059578063c23a5cea146104a4578063dbed18e0146104c4578063fc7e286d146104e457600080fd5b8063b760faf91461047c578063bb9fe6bf1461048f57600080fd5b806370a08231146103e6578063765e827f1461041c578063850aaf621461043c5780639b249f691461045c57600080fd5b80631b2e01b8116100fc57806322cdde4c116100e157806322cdde4c1461022f57806335567e1a1461024f5780635287ce12146102c057600080fd5b80631b2e01b8146101d7578063205c28781461020f57600080fd5b806242dc531461014157806301ffc9a7146101745780630396cb60146101a45780630bd28e3b146101b757600080fd5b3661013c5761013a3361059a565b005b600080fd5b34801561014d57600080fd5b5061016161015c36600461300e565b6105ef565b6040519081526020015b60405180910390f35b34801561018057600080fd5b5061019461018f3660046130ce565b610778565b604051901515815260200161016b565b61013a6101b23660046130f8565b61087d565b3480156101c357600080fd5b5061013a6101d2366004613146565b610b63565b3480156101e357600080fd5b506101616101f2366004613161565b600160209081526000928352604080842090915290825290205481565b34801561021b57600080fd5b5061013a61022a366004613196565b610bab565b34801561023b57600080fd5b5061016161024a3660046131c2565b610d07565b34801561025b57600080fd5b5061016161026a366004613161565b6001600160a01b038216600090815260016020908152604080832077ffffffffffffffffffffffffffffffffffffffffffffffff8516845290915290819020549082901b67ffffffffffffffff19161792915050565b3480156102cc57600080fd5b506103846102db3660046131fe565b6040805160a081018252600080825260208201819052918101829052606081018290526080810191909152506001600160a01b031660009081526020818152604091829020825160a0810184528154815260019091015460ff811615159282019290925261010082046dffffffffffffffffffffffffffff1692810192909252600160781b810463ffffffff166060830152600160981b900465ffffffffffff16608082015290565b60405161016b9190600060a082019050825182526020830151151560208301526dffffffffffffffffffffffffffff604084015116604083015263ffffffff606084015116606083015265ffffffffffff608084015116608083015292915050565b3480156103f257600080fd5b506101616104013660046131fe565b6001600160a01b031660009081526020819052604090205490565b34801561042857600080fd5b5061013a610437366004613260565b610d49565b34801561044857600080fd5b5061013a6104573660046132b7565b610ec6565b34801561046857600080fd5b5061013a61047736600461330c565b610f5e565b61013a61048a3660046131fe565b61059a565b34801561049b57600080fd5b5061013a61104b565b3480156104b057600080fd5b5061013a6104bf3660046131fe565b6111a9565b3480156104d057600080fd5b5061013a6104df366004613260565b6113f4565b3480156104f057600080fd5b506105506104ff3660046131fe565b6000602081905290815260409020805460019091015460ff81169061010081046dffffffffffffffffffffffffffff1690600160781b810463ffffffff1690600160981b900465ffffffffffff1685565b6040805195865293151560208601526dffffffffffffffffffffffffffff9092169284019290925263ffffffff909116606083015265ffffffffffff16608082015260a00161016b565b60006105a68234611827565b9050816001600160a01b03167f2da466a7b24304f47e87fa2e1e5a81b9831ce54fec19055ce277ca2f39ba42c4826040516105e391815260200190565b60405180910390a25050565b6000805a90503330146106495760405162461bcd60e51b815260206004820152601760248201527f4141393220696e7465726e616c2063616c6c206f6e6c7900000000000000000060448201526064015b60405180910390fd5b8451606081015160a082015181016127100160405a603f028161066e5761066e61334e565b0410156106865763deaddead60e01b60005260206000fd5b87516000901561071a5760006106a3846000015160008c8661185a565b9050806107185760006106b7610800611872565b8051909150156107125784600001516001600160a01b03168a602001517f1c4fada7374c0a9ee8841fc38afe82932dc0f8e69012e927f061a8bae611a2018760200151846040516107099291906133b4565b60405180910390a35b60019250505b505b600088608001515a860301905061076a828a8a8a8080601f01602080910402602001604051908101604052809392919081815260200183838082843760009201919091525087925061189e915050565b9a9950505050505050505050565b60006001600160e01b031982167f60fc6b6e0000000000000000000000000000000000000000000000000000000014806107db57506001600160e01b031982167f915074d800000000000000000000000000000000000000000000000000000000145b8061080f57506001600160e01b031982167fcf28ef9700000000000000000000000000000000000000000000000000000000145b8061084357506001600160e01b031982167f3e84f02100000000000000000000000000000000000000000000000000000000145b8061087757507f01ffc9a7000000000000000000000000000000000000000000000000000000006001600160e01b03198316145b92915050565b33600090815260208190526040902063ffffffff82166108df5760405162461bcd60e51b815260206004820152601a60248201527f6d757374207370656369667920756e7374616b652064656c61790000000000006044820152606401610640565b600181015463ffffffff600160781b909104811690831610156109445760405162461bcd60e51b815260206004820152601c60248201527f63616e6e6f7420646563726561736520756e7374616b652074696d65000000006044820152606401610640565b600181015460009061096c90349061010090046dffffffffffffffffffffffffffff166133e3565b9050600081116109be5760405162461bcd60e51b815260206004820152601260248201527f6e6f207374616b652073706563696669656400000000000000000000000000006044820152606401610640565b6dffffffffffffffffffffffffffff811115610a1c5760405162461bcd60e51b815260206004820152600e60248201527f7374616b65206f766572666c6f770000000000000000000000000000000000006044820152606401610640565b6040805160a08101825283548152600160208083018281526dffffffffffffffffffffffffffff86811685870190815263ffffffff8a811660608801818152600060808a0181815233808352828a52918c90209a518b55965199909801805494519151965165ffffffffffff16600160981b027fffffffffffffff000000000000ffffffffffffffffffffffffffffffffffffff97909416600160781b02969096167fffffffffffffff00000000000000000000ffffffffffffffffffffffffffffff91909516610100026effffffffffffffffffffffffffff0019991515999099166effffffffffffffffffffffffffffff1990941693909317979097179190911691909117179055835185815290810192909252917fa5ae833d0bb1dcd632d98a8b70973e8516812898e19bf27b70071ebc8dc52c01910160405180910390a2505050565b33600090815260016020908152604080832077ffffffffffffffffffffffffffffffffffffffffffffffff851684529091528120805491610ba3836133f6565b919050555050565b3360009081526020819052604090208054821115610c0b5760405162461bcd60e51b815260206004820152601960248201527f576974686472617720616d6f756e7420746f6f206c61726765000000000000006044820152606401610640565b8054610c1890839061340f565b8155604080516001600160a01b03851681526020810184905233917fd1c19fbcd4551a5edfb66d43d2e337c04837afda3482b42bdf569a8fccdae5fb910160405180910390a26000836001600160a01b03168360405160006040518083038185875af1925050503d8060008114610cab576040519150601f19603f3d011682016040523d82523d6000602084013e610cb0565b606091505b5050905080610d015760405162461bcd60e51b815260206004820152601260248201527f6661696c656420746f20776974686472617700000000000000000000000000006044820152606401610640565b50505050565b6000610d1282611a93565b6040805160208101929092523090820152466060820152608001604051602081830303815290604052805190602001209050919050565b610d51611aac565b8160008167ffffffffffffffff811115610d6d57610d6d612e09565b604051908082528060200260200182016040528015610da657816020015b610d93612d71565b815260200190600190039081610d8b5790505b50905060005b82811015610e1f576000828281518110610dc857610dc8613422565b60200260200101519050600080610e03848a8a87818110610deb57610deb613422565b9050602002810190610dfd9190613438565b85611aed565b91509150610e148483836000611cf3565b505050600101610dac565b506040516000907fbb47ee3e183a558b1a2ff0874b079f3fc5478b7454eacf2bfc5af2ff5878f972908290a160005b83811015610ea957610e9d81888884818110610e6c57610e6c613422565b9050602002810190610e7e9190613438565b858481518110610e9057610e90613422565b6020026020010151611ebd565b90910190600101610e4e565b50610eb484826121b9565b505050610ec16001600255565b505050565b600080846001600160a01b03168484604051610ee3929190613459565b600060405180830381855af49150503d8060008114610f1e576040519150601f19603f3d011682016040523d82523d6000602084013e610f23565b606091505b509150915081816040517f99410554000000000000000000000000000000000000000000000000000000008152600401610640929190613469565b6040517f570e1a360000000000000000000000000000000000000000000000000000000081526000906001600160a01b037f0000000000000000000000000000000000000000000000000000000000000000169063570e1a3690610fc890869086906004016134ad565b6020604051808303816000875af1158015610fe7573d6000803e3d6000fd5b505050506040513d601f19601f8201168201806040525081019061100b91906134c1565b6040517f6ca7b8060000000000000000000000000000000000000000000000000000000081526001600160a01b0382166004820152909150602401610640565b33600090815260208190526040812060018101549091600160781b90910463ffffffff1690036110bd5760405162461bcd60e51b815260206004820152600a60248201527f6e6f74207374616b6564000000000000000000000000000000000000000000006044820152606401610640565b600181015460ff166111115760405162461bcd60e51b815260206004820152601160248201527f616c726561647920756e7374616b696e670000000000000000000000000000006044820152606401610640565b600181015460009061113090600160781b900463ffffffff16426134de565b6001830180547fffffffffffffff000000000000ffffffffffffffffffffffffffffffffffff0016600160981b65ffffffffffff841690810260ff19169190911790915560405190815290915033907ffa9b3c14cc825c412c9ed81b3ba365a5b459439403f18829e572ed53a4180f0a906020016105e3565b336000908152602081905260409020600181015461010090046dffffffffffffffffffffffffffff168061121f5760405162461bcd60e51b815260206004820152601460248201527f4e6f207374616b6520746f2077697468647261770000000000000000000000006044820152606401610640565b6001820154600160981b900465ffffffffffff1661127f5760405162461bcd60e51b815260206004820152601d60248201527f6d7573742063616c6c20756e6c6f636b5374616b6528292066697273740000006044820152606401610640565b600182015442600160981b90910465ffffffffffff1611156112e35760405162461bcd60e51b815260206004820152601b60248201527f5374616b65207769746864726177616c206973206e6f742064756500000000006044820152606401610640565b6001820180547fffffffffffffff000000000000000000000000000000000000000000000000ff169055604080516001600160a01b03851681526020810183905233917fb7c918e0e249f999e965cafeb6c664271b3f4317d296461500e71da39f0cbda3910160405180910390a26000836001600160a01b03168260405160006040518083038185875af1925050503d806000811461139e576040519150601f19603f3d011682016040523d82523d6000602084013e6113a3565b606091505b5050905080610d015760405162461bcd60e51b815260206004820152601860248201527f6661696c656420746f207769746864726177207374616b6500000000000000006044820152606401610640565b6113fc611aac565b816000805b82811015611582573686868381811061141c5761141c613422565b905060200281019061142e9190613504565b905036600061143d838061351a565b9092509050600061145460408501602086016131fe565b90506000196001600160a01b038216016114b05760405162461bcd60e51b815260206004820152601760248201527f4141393620696e76616c69642061676772656761746f720000000000000000006044820152606401610640565b6001600160a01b03811615611566576001600160a01b038116632dd8113384846114dd6040890189613564565b6040518563ffffffff1660e01b81526004016114fc94939291906136d0565b60006040518083038186803b15801561151457600080fd5b505afa925050508015611525575060015b611566576040517f86a9f7500000000000000000000000000000000000000000000000000000000081526001600160a01b0382166004820152602401610640565b61157082876133e3565b95505060019093019250611401915050565b5060008167ffffffffffffffff81111561159e5761159e612e09565b6040519080825280602002602001820160405280156115d757816020015b6115c4612d71565b8152602001906001900390816115bc5790505b5090506000805b848110156116b457368888838181106115f9576115f9613422565b905060200281019061160b9190613504565b905036600061161a838061351a565b9092509050600061163160408501602086016131fe565b90508160005b818110156116a257600089898151811061165357611653613422565b602002602001015190506000806116768b898987818110610deb57610deb613422565b9150915061168684838389611cf3565b8a611690816133f6565b9b505060019093019250611637915050565b5050600190940193506115de92505050565b506040517fbb47ee3e183a558b1a2ff0874b079f3fc5478b7454eacf2bfc5af2ff5878f97290600090a150600080805b858110156117e257368989838181106116ff576116ff613422565b90506020028101906117119190613504565b905061172360408201602083016131fe565b6001600160a01b03167f575ff3acadd5ab348fe1855e217e0f3678f8d767d7494c9f9fefbee2e17cca4d60405160405180910390a2366000611765838061351a565b90925090508060005b818110156117d1576117b08885858481811061178c5761178c613422565b905060200281019061179e9190613438565b8b8b81518110610e9057610e90613422565b6117ba90886133e3565b9650876117c6816133f6565b98505060010161176e565b5050600190930192506116e4915050565b506040516000907f575ff3acadd5ab348fe1855e217e0f3678f8d767d7494c9f9fefbee2e17cca4d908290a261181886826121b9565b5050505050610ec16001600255565b6001600160a01b03821660009081526020819052604081208054829061184e9085906133e3565b91829055509392505050565b6000806000845160208601878987f195945050505050565b60603d828111156118805750815b604051602082018101604052818152816000602083013e9392505050565b6000805a8551909150600090816118b4826122b2565b60e08301519091506001600160a01b0381166118d357825193506119c1565b8093506000885111156119c157868202955060028a60028111156118f9576118f961374d565b146119c15760a08301516040517f7c627b210000000000000000000000000000000000000000000000000000000081526001600160a01b03831691637c627b219161194e908e908d908c908990600401613763565b600060405180830381600088803b15801561196857600080fd5b5087f19350505050801561197a575060015b6119c157600061198b610800611872565b9050806040517fad7954bc00000000000000000000000000000000000000000000000000000000815260040161064091906137ad565b5a60a0840151606085015160808c0151928803999099019801908803808211156119f4576064600a828403020498909801975b50506040890151878302965086811015611a505760028b6002811115611a1c57611a1c61374d565b03611a3f57809650611a2d8a6122e4565b611a3a8a6000898b612333565b611a85565b63deadaa5160e01b60005260206000fd5b868103611a5d8682611827565b506000808d6002811115611a7357611a7361374d565b149050611a828c828b8d612333565b50505b505050505050949350505050565b6000611a9e826123ae565b805190602001209050919050565b6002805403611ae7576040517f3ee5aeb500000000000000000000000000000000000000000000000000000000815260040160405180910390fd5b60028055565b60008060005a8451909150611b028682612466565b611b0b86610d07565b6020860152604081015161012082015161010083015160a08401516080850151606086015160c0870151861717171717176effffffffffffffffffffffffffffff811115611b9b5760405162461bcd60e51b815260206004820152601860248201527f41413934206761732076616c756573206f766572666c6f7700000000000000006044820152606401610640565b6000611bca8460c081015160a08201516080830151606084015160408501516101009095015194010101010290565b9050611bd98a8a8a848761257d565b9650611bed8460000151856020015161272d565b611c435789604051631101335b60e11b8152600401610640918152604060208201819052601a908201527f4141323520696e76616c6964206163636f756e74206e6f6e6365000000000000606082015260800190565b825a86031115611c9f5789604051631101335b60e11b8152600401610640918152604060208201819052601e908201527f41413236206f76657220766572696669636174696f6e4761734c696d69740000606082015260800190565b60e08401516060906001600160a01b031615611cc657611cc18b8b8b8561277b565b975090505b604089018290528060608a015260a08a01355a870301896080018181525050505050505050935093915050565b600080611cff8561294f565b91509150816001600160a01b0316836001600160a01b031614611d6e5785604051631101335b60e11b81526004016106409181526040602082018190526014908201527f41413234207369676e6174757265206572726f72000000000000000000000000606082015260800190565b8015611dc65785604051631101335b60e11b81526004016106409181526040602082018190526017908201527f414132322065787069726564206f72206e6f7420647565000000000000000000606082015260800190565b6000611dd18561294f565b925090506001600160a01b03811615611e365786604051631101335b60e11b81526004016106409181526040602082018190526014908201527f41413334207369676e6174757265206572726f72000000000000000000000000606082015260800190565b8115611eb45786604051631101335b60e11b81526004016106409181526040602082018190526021908201527f41413332207061796d61737465722065787069726564206f72206e6f7420647560608201527f6500000000000000000000000000000000000000000000000000000000000000608082015260a00190565b50505050505050565b6000805a90506000611ed0846060015190565b6040519091506000903682611ee860608a018a613564565b9150915060606000826003811115611eff57843591505b507f72288ed1000000000000000000000000000000000000000000000000000000006001600160e01b0319821601611fdf5760008b8b60200151604051602401611f4a9291906137c0565b60408051601f198184030181529181526020820180516001600160e01b03167f8dd7712f000000000000000000000000000000000000000000000000000000001790525190915030906242dc5390611faa9084908f908d9060240161388c565b604051602081830303815290604052915060e01b6020820180516001600160e01b038381831617835250505050925050612034565b306001600160a01b03166242dc5385858d8b60405160240161200494939291906138cc565b604051602081830303815290604052915060e01b6020820180516001600160e01b03838183161783525050505091505b602060008351602085016000305af195506000519850846040525050505050806121af5760003d8060200361206f5760206000803e60005191505b5063deaddead60e01b81036120d05787604051631101335b60e11b8152600401610640918152604060208201819052600f908201527f41413935206f7574206f66206761730000000000000000000000000000000000606082015260800190565b63deadaa5160e01b810361212157600086608001515a6120f0908761340f565b6120fa91906133e3565b604088015190915061210b886122e4565b6121188860008385612333565b95506121ad9050565b855180516020808901519201516001600160a01b0390911691907ff62676f440ff169a3a9afdbf812e89e7f95975ee8e5c31214ffdef631c5f479290612168610800611872565b6040516121769291906133b4565b60405180910390a3600086608001515a612190908761340f565b61219a91906133e3565b90506121a9600288868461189e565b9550505b505b5050509392505050565b6001600160a01b03821661220f5760405162461bcd60e51b815260206004820152601860248201527f4141393020696e76616c69642062656e656669636961727900000000000000006044820152606401610640565b6000826001600160a01b03168260405160006040518083038185875af1925050503d806000811461225c576040519150601f19603f3d011682016040523d82523d6000602084013e612261565b606091505b5050905080610ec15760405162461bcd60e51b815260206004820152601f60248201527f41413931206661696c65642073656e6420746f2062656e6566696369617279006044820152606401610640565b610100810151610120820151600091908082036122d0575092915050565b6122dc824883016129a2565b949350505050565b80518051602080840151928101516040519081526001600160a01b0390921692917f67b4fa9642f42120bf031f3051d1824b0fe25627945b27b8a6a65d5761d5482e910160405180910390a350565b835160e081015181516020808801519301516040516001600160a01b039384169492909316927f49628fd1471006c1482da88028e9ce4dbb080b815c9b0344d39e5a8e6ec1419f916123a09189908990899093845291151560208401526040830152606082015260800190565b60405180910390a450505050565b60608135602083013560006123ce6123c96040870187613564565b6129ba565b905060006123e26123c96060880188613564565b9050608086013560a087013560c088013560006124056123c960e08c018c613564565b604080516001600160a01b039a909a1660208b015289810198909852606089019690965250608087019390935260a086019190915260c085015260e08401526101008084019190915281518084039091018152610120909201905292915050565b61247360208301836131fe565b6001600160a01b03168152602082810135908201526fffffffffffffffffffffffffffffffff6080808401358281166060850152811c604084015260a084013560c0808501919091528401359182166101008401521c6101208201523660006124df60e0850185613564565b9092509050801561256257603481101561253b5760405162461bcd60e51b815260206004820152601d60248201527f4141393320696e76616c6964207061796d6173746572416e64446174610000006044820152606401610640565b61254582826129cd565b60a086015260808501526001600160a01b031660e0840152610d01565b600060e084018190526080840181905260a084015250505050565b825180516000919061259c888761259760408b018b613564565b612a3e565b60e082015160006001600160a01b0382166125e0576001600160a01b0383166000908152602081905260409020548781116125d9578088036125dc565b60005b9150505b60208801516040517f19822f7c0000000000000000000000000000000000000000000000000000000081526001600160a01b038516916319822f7c91899161262f918e91908790600401613903565b60206040518083038160008887f19350505050801561266b575060408051601f3d908101601f1916820190925261266891810190613928565b60015b612696578961267b610800611872565b6040516365c8fd4d60e01b8152600401610640929190613941565b94506001600160a01b038216612720576001600160a01b038316600090815260208190526040902080548089111561271a578b604051631101335b60e11b81526004016106409181526040602082018190526017908201527f41413231206469646e2774207061792070726566756e64000000000000000000606082015260800190565b88900390555b5050505095945050505050565b6001600160a01b038216600090815260016020908152604080832084821c808552925282208054849167ffffffffffffffff831691908561276d836133f6565b909155501495945050505050565b60606000805a855160e08101516001600160a01b03811660009081526020819052604090208054939450919290919087811015612804578a604051631101335b60e11b8152600401610640918152604060208201819052601e908201527f41413331207061796d6173746572206465706f73697420746f6f206c6f770000606082015260800190565b8781038260000181905550600084608001519050836001600160a01b03166352b7512c828d8d602001518d6040518563ffffffff1660e01b815260040161284d93929190613903565b60006040518083038160008887f19350505050801561288e57506040513d6000823e601f3d908101601f1916820160405261288b919081019061398e565b60015b6128b9578b61289e610800611872565b6040516365c8fd4d60e01b8152600401610640929190613a0f565b9098509650805a87031115612940578b604051631101335b60e11b81526004016106409181526040602082018190526027908201527f41413336206f766572207061796d6173746572566572696669636174696f6e4760608201527f61734c696d697400000000000000000000000000000000000000000000000000608082015260a00190565b50505050505094509492505050565b6000808260000361296557506000928392509050565b600061297084612d00565b9050806040015165ffffffffffff164211806129975750806020015165ffffffffffff1642105b905194909350915050565b60008183106129b157816129b3565b825b9392505050565b6000604051828085833790209392505050565b600080806129de6014828688613a5c565b6129e791613a86565b60601c6129f8602460148789613a5c565b612a0191613abb565b60801c612a1260346024888a613a5c565b612a1b91613abb565b9194506fffffffffffffffffffffffffffffffff16925060801c90509250925092565b8015610d01578251516001600160a01b0381163b15612aa95784604051631101335b60e11b8152600401610640918152604060208201819052601f908201527f414131302073656e64657220616c726561647920636f6e737472756374656400606082015260800190565b60007f00000000000000000000000000000000000000000000000000000000000000006001600160a01b031663570e1a3686600001516040015186866040518463ffffffff1660e01b8152600401612b029291906134ad565b60206040518083038160008887f1158015612b21573d6000803e3d6000fd5b50505050506040513d601f19601f82011682018060405250810190612b4691906134c1565b90506001600160a01b038116612ba85785604051631101335b60e11b8152600401610640918152604060208201819052601b908201527f4141313320696e6974436f6465206661696c6564206f72204f4f470000000000606082015260800190565b816001600160a01b0316816001600160a01b031614612c125785604051631101335b60e11b815260040161064091815260406020808301829052908201527f4141313420696e6974436f6465206d7573742072657475726e2073656e646572606082015260800190565b806001600160a01b03163b600003612c755785604051631101335b60e11b815260040161064091815260406020808301829052908201527f4141313520696e6974436f6465206d757374206372656174652073656e646572606082015260800190565b6000612c846014828688613a5c565b612c8d91613a86565b60601c9050826001600160a01b031686602001517fd51a9c61267aa6196961883ecf5ff2da6619c37dac0fa92122513fb32c032d2d83896000015160e00151604051612cef9291906001600160a01b0392831681529116602082015260400190565b60405180910390a350505050505050565b60408051606081018252600080825260208201819052918101919091528160a081901c65ffffffffffff8116600003612d3c575065ffffffffffff5b604080516060810182526001600160a01b03909316835260d09490941c602083015265ffffffffffff16928101929092525090565b6040518060a00160405280612de460405180610140016040528060006001600160a01b0316815260200160008152602001600081526020016000815260200160008152602001600081526020016000815260200160006001600160a01b0316815260200160008152602001600081525090565b8152602001600080191681526020016000815260200160008152602001600081525090565b634e487b7160e01b600052604160045260246000fd5b60405160a0810167ffffffffffffffff81118282101715612e4257612e42612e09565b60405290565b604051610140810167ffffffffffffffff81118282101715612e4257612e42612e09565b604051601f8201601f1916810167ffffffffffffffff81118282101715612e9557612e95612e09565b604052919050565b600067ffffffffffffffff821115612eb757612eb7612e09565b50601f01601f191660200190565b6001600160a01b0381168114612eda57600080fd5b50565b8035612ee881612ec5565b919050565b60008183036101c0811215612f0157600080fd5b612f09612e1f565b915061014080821215612f1b57600080fd5b612f23612e48565b9150612f2e84612edd565b82526020840135602083015260408401356040830152606084013560608301526080840135608083015260a084013560a083015260c084013560c0830152612f7860e08501612edd565b60e0830152610100848101359083015261012080850135908301529082528201356020820152610160820135604082015261018082013560608201526101a0909101356080820152919050565b60008083601f840112612fd757600080fd5b50813567ffffffffffffffff811115612fef57600080fd5b60208301915083602082850101111561300757600080fd5b9250929050565b600080600080610200858703121561302557600080fd5b843567ffffffffffffffff8082111561303d57600080fd5b818701915087601f83011261305157600080fd5b813561306461305f82612e9d565b612e6c565b81815289602083860101111561307957600080fd5b81602085016020830137600060208383010152809750505061309e8860208901612eed565b94506101e08701359150808211156130b557600080fd5b506130c287828801612fc5565b95989497509550505050565b6000602082840312156130e057600080fd5b81356001600160e01b0319811681146129b357600080fd5b60006020828403121561310a57600080fd5b813563ffffffff811681146129b357600080fd5b803577ffffffffffffffffffffffffffffffffffffffffffffffff81168114612ee857600080fd5b60006020828403121561315857600080fd5b6129b38261311e565b6000806040838503121561317457600080fd5b823561317f81612ec5565b915061318d6020840161311e565b90509250929050565b600080604083850312156131a957600080fd5b82356131b481612ec5565b946020939093013593505050565b6000602082840312156131d457600080fd5b813567ffffffffffffffff8111156131eb57600080fd5b820161012081850312156129b357600080fd5b60006020828403121561321057600080fd5b81356129b381612ec5565b60008083601f84011261322d57600080fd5b50813567ffffffffffffffff81111561324557600080fd5b6020830191508360208260051b850101111561300757600080fd5b60008060006040848603121561327557600080fd5b833567ffffffffffffffff81111561328c57600080fd5b6132988682870161321b565b90945092505060208401356132ac81612ec5565b809150509250925092565b6000806000604084860312156132cc57600080fd5b83356132d781612ec5565b9250602084013567ffffffffffffffff8111156132f357600080fd5b6132ff86828701612fc5565b9497909650939450505050565b6000806020838503121561331f57600080fd5b823567ffffffffffffffff81111561333657600080fd5b61334285828601612fc5565b90969095509350505050565b634e487b7160e01b600052601260045260246000fd5b60005b8381101561337f578181015183820152602001613367565b50506000910152565b600081518084526133a0816020860160208601613364565b601f01601f19169290920160200192915050565b8281526040602082015260006122dc6040830184613388565b634e487b7160e01b600052601160045260246000fd5b80820180821115610877576108776133cd565b600060018201613408576134086133cd565b5060010190565b81810381811115610877576108776133cd565b634e487b7160e01b600052603260045260246000fd5b6000823561011e1983360301811261344f57600080fd5b9190910192915050565b8183823760009101908152919050565b82151581526040602082015260006122dc6040830184613388565b81835281816020850137506000828201602090810191909152601f909101601f19169091010190565b6020815260006122dc602083018486613484565b6000602082840312156134d357600080fd5b81516129b381612ec5565b65ffffffffffff8181168382160190808211156134fd576134fd6133cd565b5092915050565b60008235605e1983360301811261344f57600080fd5b6000808335601e1984360301811261353157600080fd5b83018035915067ffffffffffffffff82111561354c57600080fd5b6020019150600581901b360382131561300757600080fd5b6000808335601e1984360301811261357b57600080fd5b83018035915067ffffffffffffffff82111561359657600080fd5b60200191503681900382131561300757600080fd5b6000808335601e198436030181126135c257600080fd5b830160208101925035905067ffffffffffffffff8111156135e257600080fd5b80360382131561300757600080fd5b60006101206136108461360385612edd565b6001600160a01b03169052565b6020830135602085015261362760408401846135ab565b82604087015261363a8387018284613484565b9250505061364b60608401846135ab565b858303606087015261365e838284613484565b925050506080830135608085015260a083013560a085015260c083013560c085015261368d60e08401846135ab565b85830360e08701526136a0838284613484565b925050506101006136b3818501856135ab565b868403838801526136c5848284613484565b979650505050505050565b6040808252810184905260006060600586901b830181019083018783805b8981101561373657868503605f190184528235368c900361011e19018112613714578283fd5b613720868d83016135f1565b95505060209384019392909201916001016136ee565b5050505082810360208401526136c5818587613484565b634e487b7160e01b600052602160045260246000fd5b60006003861061378357634e487b7160e01b600052602160045260246000fd5b8582526080602083015261379a6080830186613388565b6040830194909452506060015292915050565b6020815260006129b36020830184613388565b6040815260006137d360408301856135f1565b90508260208301529392505050565b805180516001600160a01b031683526020810151602084015260408101516040840152606081015160608401526080810151608084015260a081015160a084015260c081015160c084015260e081015161384760e08501826001600160a01b03169052565b5061010081810151908401526101209081015190830152602081015161014083015260408101516101608301526060810151610180830152608001516101a090910152565b60006102008083526138a081840187613388565b90506138af60208401866137e2565b8281036101e08401526138c28185613388565b9695505050505050565b60006102008083526138e18184018789613484565b90506138f060208401866137e2565b8281036101e08401526136c58185613388565b60608152600061391660608301866135f1565b60208301949094525060400152919050565b60006020828403121561393a57600080fd5b5051919050565b82815260606020820152600d60608201527f4141323320726576657274656400000000000000000000000000000000000000608082015260a0604082015260006122dc60a0830184613388565b600080604083850312156139a157600080fd5b825167ffffffffffffffff8111156139b857600080fd5b8301601f810185136139c957600080fd5b80516139d761305f82612e9d565b8181528660208385010111156139ec57600080fd5b6139fd826020830160208601613364565b60209590950151949694955050505050565b82815260606020820152600d60608201527f4141333320726576657274656400000000000000000000000000000000000000608082015260a0604082015260006122dc60a0830184613388565b60008085851115613a6c57600080fd5b83861115613a7957600080fd5b5050820193919092039150565b6bffffffffffffffffffffffff198135818116916014851015613ab35780818660140360031b1b83161692505b505092915050565b7fffffffffffffffffffffffffffffffff000000000000000000000000000000008135818116916010851015613ab35760109490940360031b84901b169092169291505056fea2646970667358221220506dc468cc738f887addb45c781de0f9f73e8c97b2aa292274788803b3572bfb64736f6c63430008180033608060405234801561001057600080fd5b50610200806100206000396000f3fe608060405234801561001057600080fd5b506004361061002b5760003560e01c8063570e1a3614610030575b600080fd5b61004361003e3660046100f9565b61006c565b60405173ffffffffffffffffffffffffffffffffffffffff909116815260200160405180910390f35b60008061007c601482858761016b565b61008591610195565b60601c90506000610099846014818861016b565b8080601f016020809104026020016040519081016040528093929190818152602001838380828437600092018290525084519495509360209350849250905082850182875af190506000519350806100f057600093505b50505092915050565b6000806020838503121561010c57600080fd5b823567ffffffffffffffff8082111561012457600080fd5b818501915085601f83011261013857600080fd5b81358181111561014757600080fd5b86602082850101111561015957600080fd5b60209290920196919550909350505050565b6000808585111561017b57600080fd5b8386111561018857600080fd5b5050820193919092039150565b6bffffffffffffffffffffffff1981358181169160148510156101c25780818660140360031b1b83161692505b50509291505056fea2646970667358221220c8406113e3188858b52420149ee10b5136277e83bc24d88d9c686ab851d0d2f964736f6c63430008180033","opcodes":"PUSH1 0xA0 PUSH1 0x40 MSTORE PUSH1 0x40 MLOAD PUSH3 0x12 SWAP1 PUSH3 0x55 JUMP JUMPDEST PUSH1 0x40 MLOAD DUP1 SWAP2 SUB SWAP1 PUSH1 0x0 CREATE DUP1 ISZERO DUP1 ISZERO PUSH3 0x2F JUMPI RETURNDATASIZE PUSH1 0x0 DUP1 RETURNDATACOPY RETURNDATASIZE PUSH1 0x0 REVERT JUMPDEST POP PUSH1 0x1 PUSH1 0x1 PUSH1 0xA0 SHL SUB AND PUSH1 0x80 MSTORE CALLVALUE DUP1 ISZERO PUSH3 0x49 JUMPI PUSH1 0x0 DUP1 REVERT JUMPDEST POP PUSH1 0x1 PUSH1 0x2 SSTORE PUSH3 0x63 JUMP JUMPDEST PUSH2 0x220 DUP1 PUSH3 0x3BBD DUP4 CODECOPY ADD SWAP1 JUMP JUMPDEST PUSH1 0x80 MLOAD PUSH2 0x3B37 PUSH3 0x86 PUSH1 0x0 CODECOPY PUSH1 0x0 DUP2 DUP2 PUSH2 0xF91 ADD MSTORE PUSH2 0x2AAD ADD MSTORE PUSH2 0x3B37 PUSH1 0x0 RETURN INVALID PUSH1 0x80 PUSH1 0x40 MSTORE PUSH1 0x4 CALLDATASIZE LT PUSH2 0x12C JUMPI PUSH1 0x0 CALLDATALOAD PUSH1 0xE0 SHR DUP1 PUSH4 0x70A08231 GT PUSH2 0xA5 JUMPI DUP1 PUSH4 0xB760FAF9 GT PUSH2 0x74 JUMPI DUP1 PUSH4 0xC23A5CEA GT PUSH2 0x59 JUMPI DUP1 PUSH4 0xC23A5CEA EQ PUSH2 0x4A4 JUMPI DUP1 PUSH4 0xDBED18E0 EQ PUSH2 0x4C4 JUMPI DUP1 PUSH4 0xFC7E286D EQ PUSH2 0x4E4 JUMPI PUSH1 0x0 DUP1 REVERT JUMPDEST DUP1 PUSH4 0xB760FAF9 EQ PUSH2 0x47C JUMPI DUP1 PUSH4 0xBB9FE6BF EQ PUSH2 0x48F JUMPI PUSH1 0x0 DUP1 REVERT JUMPDEST DUP1 PUSH4 0x70A08231 EQ PUSH2 0x3E6 JUMPI DUP1 PUSH4 0x765E827F EQ PUSH2 0x41C JUMPI DUP1 PUSH4 0x850AAF62 EQ PUSH2 0x43C JUMPI DUP1 PUSH4 0x9B249F69 EQ PUSH2 0x45C JUMPI PUSH1 0x0 DUP1 REVERT JUMPDEST DUP1 PUSH4 0x1B2E01B8 GT PUSH2 0xFC JUMPI DUP1 PUSH4 0x22CDDE4C GT PUSH2 0xE1 JUMPI DUP1 PUSH4 0x22CDDE4C EQ PUSH2 0x22F JUMPI DUP1 PUSH4 0x35567E1A EQ PUSH2 0x24F JUMPI DUP1 PUSH4 0x5287CE12 EQ PUSH2 0x2C0 JUMPI PUSH1 0x0 DUP1 REVERT JUMPDEST DUP1 PUSH4 0x1B2E01B8 EQ PUSH2 0x1D7 JUMPI DUP1 PUSH4 0x205C2878 EQ PUSH2 0x20F JUMPI PUSH1 0x0 DUP1 REVERT JUMPDEST DUP1 PUSH3 0x42DC53 EQ PUSH2 0x141 JUMPI DUP1 PUSH4 0x1FFC9A7 EQ PUSH2 0x174 JUMPI DUP1 PUSH4 0x396CB60 EQ PUSH2 0x1A4 JUMPI DUP1 PUSH4 0xBD28E3B EQ PUSH2 0x1B7 JUMPI PUSH1 0x0 DUP1 REVERT JUMPDEST CALLDATASIZE PUSH2 0x13C JUMPI PUSH2 0x13A CALLER PUSH2 0x59A JUMP JUMPDEST STOP JUMPDEST PUSH1 0x0 DUP1 REVERT JUMPDEST CALLVALUE DUP1 ISZERO PUSH2 0x14D JUMPI PUSH1 0x0 DUP1 REVERT JUMPDEST POP PUSH2 0x161 PUSH2 0x15C CALLDATASIZE PUSH1 0x4 PUSH2 0x300E JUMP JUMPDEST PUSH2 0x5EF JUMP JUMPDEST PUSH1 0x40 MLOAD SWAP1 DUP2 MSTORE PUSH1 0x20 ADD JUMPDEST PUSH1 0x40 MLOAD DUP1 SWAP2 SUB SWAP1 RETURN JUMPDEST CALLVALUE DUP1 ISZERO PUSH2 0x180 JUMPI PUSH1 0x0 DUP1 REVERT JUMPDEST POP PUSH2 0x194 PUSH2 0x18F CALLDATASIZE PUSH1 0x4 PUSH2 0x30CE JUMP JUMPDEST PUSH2 0x778 JUMP JUMPDEST PUSH1 0x40 MLOAD SWAP1 ISZERO ISZERO DUP2 MSTORE PUSH1 0x20 ADD PUSH2 0x16B JUMP JUMPDEST PUSH2 0x13A PUSH2 0x1B2 CALLDATASIZE PUSH1 0x4 PUSH2 0x30F8 JUMP JUMPDEST PUSH2 0x87D JUMP JUMPDEST CALLVALUE DUP1 ISZERO PUSH2 0x1C3 JUMPI PUSH1 0x0 DUP1 REVERT JUMPDEST POP PUSH2 0x13A PUSH2 0x1D2 CALLDATASIZE PUSH1 0x4 PUSH2 0x3146 JUMP JUMPDEST PUSH2 0xB63 JUMP JUMPDEST CALLVALUE DUP1 ISZERO PUSH2 0x1E3 JUMPI PUSH1 0x0 DUP1 REVERT JUMPDEST POP PUSH2 0x161 PUSH2 0x1F2 CALLDATASIZE PUSH1 0x4 PUSH2 0x3161 JUMP JUMPDEST PUSH1 0x1 PUSH1 0x20 SWAP1 DUP2 MSTORE PUSH1 0x0 SWAP3 DUP4 MSTORE PUSH1 0x40 DUP1 DUP5 KECCAK256 SWAP1 SWAP2 MSTORE SWAP1 DUP3 MSTORE SWAP1 KECCAK256 SLOAD DUP2 JUMP JUMPDEST CALLVALUE DUP1 ISZERO PUSH2 0x21B JUMPI PUSH1 0x0 DUP1 REVERT JUMPDEST POP PUSH2 0x13A PUSH2 0x22A CALLDATASIZE PUSH1 0x4 PUSH2 0x3196 JUMP JUMPDEST PUSH2 0xBAB JUMP JUMPDEST CALLVALUE DUP1 ISZERO PUSH2 0x23B JUMPI PUSH1 0x0 DUP1 REVERT JUMPDEST POP PUSH2 0x161 PUSH2 0x24A CALLDATASIZE PUSH1 0x4 PUSH2 0x31C2 JUMP JUMPDEST PUSH2 0xD07 JUMP JUMPDEST CALLVALUE DUP1 ISZERO PUSH2 0x25B JUMPI PUSH1 0x0 DUP1 REVERT JUMPDEST POP PUSH2 0x161 PUSH2 0x26A CALLDATASIZE PUSH1 0x4 PUSH2 0x3161 JUMP JUMPDEST PUSH1 0x1 PUSH1 0x1 PUSH1 0xA0 SHL SUB DUP3 AND PUSH1 0x0 SWAP1 DUP2 MSTORE PUSH1 0x1 PUSH1 0x20 SWAP1 DUP2 MSTORE PUSH1 0x40 DUP1 DUP4 KECCAK256 PUSH24 0xFFFFFFFFFFFFFFFFFFFFFFFFFFFFFFFFFFFFFFFFFFFFFFFF DUP6 AND DUP5 MSTORE SWAP1 SWAP2 MSTORE SWAP1 DUP2 SWAP1 KECCAK256 SLOAD SWAP1 DUP3 SWAP1 SHL PUSH8 0xFFFFFFFFFFFFFFFF NOT AND OR SWAP3 SWAP2 POP POP JUMP JUMPDEST CALLVALUE DUP1 ISZERO PUSH2 0x2CC JUMPI PUSH1 0x0 DUP1 REVERT JUMPDEST POP PUSH2 0x384 PUSH2 0x2DB CALLDATASIZE PUSH1 0x4 PUSH2 0x31FE JUMP JUMPDEST PUSH1 0x40 DUP1 MLOAD PUSH1 0xA0 DUP2 ADD DUP3 MSTORE PUSH1 0x0 DUP1 DUP3 MSTORE PUSH1 0x20 DUP3 ADD DUP2 SWAP1 MSTORE SWAP2 DUP2 ADD DUP3 SWAP1 MSTORE PUSH1 0x60 DUP2 ADD DUP3 SWAP1 MSTORE PUSH1 0x80 DUP2 ADD SWAP2 SWAP1 SWAP2 MSTORE POP PUSH1 0x1 PUSH1 0x1 PUSH1 0xA0 SHL SUB AND PUSH1 0x0 SWAP1 DUP2 MSTORE PUSH1 0x20 DUP2 DUP2 MSTORE PUSH1 0x40 SWAP2 DUP3 SWAP1 KECCAK256 DUP3 MLOAD PUSH1 0xA0 DUP2 ADD DUP5 MSTORE DUP2 SLOAD DUP2 MSTORE PUSH1 0x1 SWAP1 SWAP2 ADD SLOAD PUSH1 0xFF DUP2 AND ISZERO ISZERO SWAP3 DUP3 ADD SWAP3 SWAP1 SWAP3 MSTORE PUSH2 0x100 DUP3 DIV PUSH14 0xFFFFFFFFFFFFFFFFFFFFFFFFFFFF AND SWAP3 DUP2 ADD SWAP3 SWAP1 SWAP3 MSTORE PUSH1 0x1 PUSH1 0x78 SHL DUP2 DIV PUSH4 0xFFFFFFFF AND PUSH1 0x60 DUP4 ADD MSTORE PUSH1 0x1 PUSH1 0x98 SHL SWAP1 DIV PUSH6 0xFFFFFFFFFFFF AND PUSH1 0x80 DUP3 ADD MSTORE SWAP1 JUMP JUMPDEST PUSH1 0x40 MLOAD PUSH2 0x16B SWAP2 SWAP1 PUSH1 0x0 PUSH1 0xA0 DUP3 ADD SWAP1 POP DUP3 MLOAD DUP3 MSTORE PUSH1 0x20 DUP4 ADD MLOAD ISZERO ISZERO PUSH1 0x20 DUP4 ADD MSTORE PUSH14 0xFFFFFFFFFFFFFFFFFFFFFFFFFFFF PUSH1 0x40 DUP5 ADD MLOAD AND PUSH1 0x40 DUP4 ADD MSTORE PUSH4 0xFFFFFFFF PUSH1 0x60 DUP5 ADD MLOAD AND PUSH1 0x60 DUP4 ADD MSTORE PUSH6 0xFFFFFFFFFFFF PUSH1 0x80 DUP5 ADD MLOAD AND PUSH1 0x80 DUP4 ADD MSTORE SWAP3 SWAP2 POP POP JUMP JUMPDEST CALLVALUE DUP1 ISZERO PUSH2 0x3F2 JUMPI PUSH1 0x0 DUP1 REVERT JUMPDEST POP PUSH2 0x161 PUSH2 0x401 CALLDATASIZE PUSH1 0x4 PUSH2 0x31FE JUMP JUMPDEST PUSH1 0x1 PUSH1 0x1 PUSH1 0xA0 SHL SUB AND PUSH1 0x0 SWAP1 DUP2 MSTORE PUSH1 0x20 DUP2 SWAP1 MSTORE PUSH1 0x40 SWAP1 KECCAK256 SLOAD SWAP1 JUMP JUMPDEST CALLVALUE DUP1 ISZERO PUSH2 0x428 JUMPI PUSH1 0x0 DUP1 REVERT JUMPDEST POP PUSH2 0x13A PUSH2 0x437 CALLDATASIZE PUSH1 0x4 PUSH2 0x3260 JUMP JUMPDEST PUSH2 0xD49 JUMP JUMPDEST CALLVALUE DUP1 ISZERO PUSH2 0x448 JUMPI PUSH1 0x0 DUP1 REVERT JUMPDEST POP PUSH2 0x13A PUSH2 0x457 CALLDATASIZE PUSH1 0x4 PUSH2 0x32B7 JUMP JUMPDEST PUSH2 0xEC6 JUMP JUMPDEST CALLVALUE DUP1 ISZERO PUSH2 0x468 JUMPI PUSH1 0x0 DUP1 REVERT JUMPDEST POP PUSH2 0x13A PUSH2 0x477 CALLDATASIZE PUSH1 0x4 PUSH2 0x330C JUMP JUMPDEST PUSH2 0xF5E JUMP JUMPDEST PUSH2 0x13A PUSH2 0x48A CALLDATASIZE PUSH1 0x4 PUSH2 0x31FE JUMP JUMPDEST PUSH2 0x59A JUMP JUMPDEST CALLVALUE DUP1 ISZERO PUSH2 0x49B JUMPI PUSH1 0x0 DUP1 REVERT JUMPDEST POP PUSH2 0x13A PUSH2 0x104B JUMP JUMPDEST CALLVALUE DUP1 ISZERO PUSH2 0x4B0 JUMPI PUSH1 0x0 DUP1 REVERT JUMPDEST POP PUSH2 0x13A PUSH2 0x4BF CALLDATASIZE PUSH1 0x4 PUSH2 0x31FE JUMP JUMPDEST PUSH2 0x11A9 JUMP JUMPDEST CALLVALUE DUP1 ISZERO PUSH2 0x4D0 JUMPI PUSH1 0x0 DUP1 REVERT JUMPDEST POP PUSH2 0x13A PUSH2 0x4DF CALLDATASIZE PUSH1 0x4 PUSH2 0x3260 JUMP JUMPDEST PUSH2 0x13F4 JUMP JUMPDEST CALLVALUE DUP1 ISZERO PUSH2 0x4F0 JUMPI PUSH1 0x0 DUP1 REVERT JUMPDEST POP PUSH2 0x550 PUSH2 0x4FF CALLDATASIZE PUSH1 0x4 PUSH2 0x31FE JUMP JUMPDEST PUSH1 0x0 PUSH1 0x20 DUP2 SWAP1 MSTORE SWAP1 DUP2 MSTORE PUSH1 0x40 SWAP1 KECCAK256 DUP1 SLOAD PUSH1 0x1 SWAP1 SWAP2 ADD SLOAD PUSH1 0xFF DUP2 AND SWAP1 PUSH2 0x100 DUP2 DIV PUSH14 0xFFFFFFFFFFFFFFFFFFFFFFFFFFFF AND SWAP1 PUSH1 0x1 PUSH1 0x78 SHL DUP2 DIV PUSH4 0xFFFFFFFF AND SWAP1 PUSH1 0x1 PUSH1 0x98 SHL SWAP1 DIV PUSH6 0xFFFFFFFFFFFF AND DUP6 JUMP JUMPDEST PUSH1 0x40 DUP1 MLOAD SWAP6 DUP7 MSTORE SWAP4 ISZERO ISZERO PUSH1 0x20 DUP7 ADD MSTORE PUSH14 0xFFFFFFFFFFFFFFFFFFFFFFFFFFFF SWAP1 SWAP3 AND SWAP3 DUP5 ADD SWAP3 SWAP1 SWAP3 MSTORE PUSH4 0xFFFFFFFF SWAP1 SWAP2 AND PUSH1 0x60 DUP4 ADD MSTORE PUSH6 0xFFFFFFFFFFFF AND PUSH1 0x80 DUP3 ADD MSTORE PUSH1 0xA0 ADD PUSH2 0x16B JUMP JUMPDEST PUSH1 0x0 PUSH2 0x5A6 DUP3 CALLVALUE PUSH2 0x1827 JUMP JUMPDEST SWAP1 POP DUP2 PUSH1 0x1 PUSH1 0x1 PUSH1 0xA0 SHL SUB AND PUSH32 0x2DA466A7B24304F47E87FA2E1E5A81B9831CE54FEC19055CE277CA2F39BA42C4 DUP3 PUSH1 0x40 MLOAD PUSH2 0x5E3 SWAP2 DUP2 MSTORE PUSH1 0x20 ADD SWAP1 JUMP JUMPDEST PUSH1 0x40 MLOAD DUP1 SWAP2 SUB SWAP1 LOG2 POP POP JUMP JUMPDEST PUSH1 0x0 DUP1 GAS SWAP1 POP CALLER ADDRESS EQ PUSH2 0x649 JUMPI PUSH1 0x40 MLOAD PUSH3 0x461BCD PUSH1 0xE5 SHL DUP2 MSTORE PUSH1 0x20 PUSH1 0x4 DUP3 ADD MSTORE PUSH1 0x17 PUSH1 0x24 DUP3 ADD MSTORE PUSH32 0x4141393220696E7465726E616C2063616C6C206F6E6C79000000000000000000 PUSH1 0x44 DUP3 ADD MSTORE PUSH1 0x64 ADD JUMPDEST PUSH1 0x40 MLOAD DUP1 SWAP2 SUB SWAP1 REVERT JUMPDEST DUP5 MLOAD PUSH1 0x60 DUP2 ADD MLOAD PUSH1 0xA0 DUP3 ADD MLOAD DUP2 ADD PUSH2 0x2710 ADD PUSH1 0x40 GAS PUSH1 0x3F MUL DUP2 PUSH2 0x66E JUMPI PUSH2 0x66E PUSH2 0x334E JUMP JUMPDEST DIV LT ISZERO PUSH2 0x686 JUMPI PUSH4 0xDEADDEAD PUSH1 0xE0 SHL PUSH1 0x0 MSTORE PUSH1 0x20 PUSH1 0x0 REVERT JUMPDEST DUP8 MLOAD PUSH1 0x0 SWAP1 ISZERO PUSH2 0x71A JUMPI PUSH1 0x0 PUSH2 0x6A3 DUP5 PUSH1 0x0 ADD MLOAD PUSH1 0x0 DUP13 DUP7 PUSH2 0x185A JUMP JUMPDEST SWAP1 POP DUP1 PUSH2 0x718 JUMPI PUSH1 0x0 PUSH2 0x6B7 PUSH2 0x800 PUSH2 0x1872 JUMP JUMPDEST DUP1 MLOAD SWAP1 SWAP2 POP ISZERO PUSH2 0x712 JUMPI DUP5 PUSH1 0x0 ADD MLOAD PUSH1 0x1 PUSH1 0x1 PUSH1 0xA0 SHL SUB AND DUP11 PUSH1 0x20 ADD MLOAD PUSH32 0x1C4FADA7374C0A9EE8841FC38AFE82932DC0F8E69012E927F061A8BAE611A201 DUP8 PUSH1 0x20 ADD MLOAD DUP5 PUSH1 0x40 MLOAD PUSH2 0x709 SWAP3 SWAP2 SWAP1 PUSH2 0x33B4 JUMP JUMPDEST PUSH1 0x40 MLOAD DUP1 SWAP2 SUB SWAP1 LOG3 JUMPDEST PUSH1 0x1 SWAP3 POP POP JUMPDEST POP JUMPDEST PUSH1 0x0 DUP9 PUSH1 0x80 ADD MLOAD GAS DUP7 SUB ADD SWAP1 POP PUSH2 0x76A DUP3 DUP11 DUP11 DUP11 DUP1 DUP1 PUSH1 0x1F ADD PUSH1 0x20 DUP1 SWAP2 DIV MUL PUSH1 0x20 ADD PUSH1 0x40 MLOAD SWAP1 DUP2 ADD PUSH1 0x40 MSTORE DUP1 SWAP4 SWAP3 SWAP2 SWAP1 DUP2 DUP2 MSTORE PUSH1 0x20 ADD DUP4 DUP4 DUP1 DUP3 DUP5 CALLDATACOPY PUSH1 0x0 SWAP3 ADD SWAP2 SWAP1 SWAP2 MSTORE POP DUP8 SWAP3 POP PUSH2 0x189E SWAP2 POP POP JUMP JUMPDEST SWAP11 SWAP10 POP POP POP POP POP POP POP POP POP POP JUMP JUMPDEST PUSH1 0x0 PUSH1 0x1 PUSH1 0x1 PUSH1 0xE0 SHL SUB NOT DUP3 AND PUSH32 0x60FC6B6E00000000000000000000000000000000000000000000000000000000 EQ DUP1 PUSH2 0x7DB JUMPI POP PUSH1 0x1 PUSH1 0x1 PUSH1 0xE0 SHL SUB NOT DUP3 AND PUSH32 0x915074D800000000000000000000000000000000000000000000000000000000 EQ JUMPDEST DUP1 PUSH2 0x80F JUMPI POP PUSH1 0x1 PUSH1 0x1 PUSH1 0xE0 SHL SUB NOT DUP3 AND PUSH32 0xCF28EF9700000000000000000000000000000000000000000000000000000000 EQ JUMPDEST DUP1 PUSH2 0x843 JUMPI POP PUSH1 0x1 PUSH1 0x1 PUSH1 0xE0 SHL SUB NOT DUP3 AND PUSH32 0x3E84F02100000000000000000000000000000000000000000000000000000000 EQ JUMPDEST DUP1 PUSH2 0x877 JUMPI POP PUSH32 0x1FFC9A700000000000000000000000000000000000000000000000000000000 PUSH1 0x1 PUSH1 0x1 PUSH1 0xE0 SHL SUB NOT DUP4 AND EQ JUMPDEST SWAP3 SWAP2 POP POP JUMP JUMPDEST CALLER PUSH1 0x0 SWAP1 DUP2 MSTORE PUSH1 0x20 DUP2 SWAP1 MSTORE PUSH1 0x40 SWAP1 KECCAK256 PUSH4 0xFFFFFFFF DUP3 AND PUSH2 0x8DF JUMPI PUSH1 0x40 MLOAD PUSH3 0x461BCD PUSH1 0xE5 SHL DUP2 MSTORE PUSH1 0x20 PUSH1 0x4 DUP3 ADD MSTORE PUSH1 0x1A PUSH1 0x24 DUP3 ADD MSTORE PUSH32 0x6D757374207370656369667920756E7374616B652064656C6179000000000000 PUSH1 0x44 DUP3 ADD MSTORE PUSH1 0x64 ADD PUSH2 0x640 JUMP JUMPDEST PUSH1 0x1 DUP2 ADD SLOAD PUSH4 0xFFFFFFFF PUSH1 0x1 PUSH1 0x78 SHL SWAP1 SWAP2 DIV DUP2 AND SWAP1 DUP4 AND LT ISZERO PUSH2 0x944 JUMPI PUSH1 0x40 MLOAD PUSH3 0x461BCD PUSH1 0xE5 SHL DUP2 MSTORE PUSH1 0x20 PUSH1 0x4 DUP3 ADD MSTORE PUSH1 0x1C PUSH1 0x24 DUP3 ADD MSTORE PUSH32 0x63616E6E6F7420646563726561736520756E7374616B652074696D6500000000 PUSH1 0x44 DUP3 ADD MSTORE PUSH1 0x64 ADD PUSH2 0x640 JUMP JUMPDEST PUSH1 0x1 DUP2 ADD SLOAD PUSH1 0x0 SWAP1 PUSH2 0x96C SWAP1 CALLVALUE SWAP1 PUSH2 0x100 SWAP1 DIV PUSH14 0xFFFFFFFFFFFFFFFFFFFFFFFFFFFF AND PUSH2 0x33E3 JUMP JUMPDEST SWAP1 POP PUSH1 0x0 DUP2 GT PUSH2 0x9BE JUMPI PUSH1 0x40 MLOAD PUSH3 0x461BCD PUSH1 0xE5 SHL DUP2 MSTORE PUSH1 0x20 PUSH1 0x4 DUP3 ADD MSTORE PUSH1 0x12 PUSH1 0x24 DUP3 ADD MSTORE PUSH32 0x6E6F207374616B65207370656369666965640000000000000000000000000000 PUSH1 0x44 DUP3 ADD MSTORE PUSH1 0x64 ADD PUSH2 0x640 JUMP JUMPDEST PUSH14 0xFFFFFFFFFFFFFFFFFFFFFFFFFFFF DUP2 GT ISZERO PUSH2 0xA1C JUMPI PUSH1 0x40 MLOAD PUSH3 0x461BCD PUSH1 0xE5 SHL DUP2 MSTORE PUSH1 0x20 PUSH1 0x4 DUP3 ADD MSTORE PUSH1 0xE PUSH1 0x24 DUP3 ADD MSTORE PUSH32 0x7374616B65206F766572666C6F77000000000000000000000000000000000000 PUSH1 0x44 DUP3 ADD MSTORE PUSH1 0x64 ADD PUSH2 0x640 JUMP JUMPDEST PUSH1 0x40 DUP1 MLOAD PUSH1 0xA0 DUP2 ADD DUP3 MSTORE DUP4 SLOAD DUP2 MSTORE PUSH1 0x1 PUSH1 0x20 DUP1 DUP4 ADD DUP3 DUP2 MSTORE PUSH14 0xFFFFFFFFFFFFFFFFFFFFFFFFFFFF DUP7 DUP2 AND DUP6 DUP8 ADD SWAP1 DUP2 MSTORE PUSH4 0xFFFFFFFF DUP11 DUP2 AND PUSH1 0x60 DUP9 ADD DUP2 DUP2 MSTORE PUSH1 0x0 PUSH1 0x80 DUP11 ADD DUP2 DUP2 MSTORE CALLER DUP1 DUP4 MSTORE DUP3 DUP11 MSTORE SWAP2 DUP13 SWAP1 KECCAK256 SWAP11 MLOAD DUP12 SSTORE SWAP7 MLOAD SWAP10 SWAP1 SWAP9 ADD DUP1 SLOAD SWAP5 MLOAD SWAP2 MLOAD SWAP7 MLOAD PUSH6 0xFFFFFFFFFFFF AND PUSH1 0x1 PUSH1 0x98 SHL MUL PUSH32 0xFFFFFFFFFFFFFF000000000000FFFFFFFFFFFFFFFFFFFFFFFFFFFFFFFFFFFFFF SWAP8 SWAP1 SWAP5 AND PUSH1 0x1 PUSH1 0x78 SHL MUL SWAP7 SWAP1 SWAP7 AND PUSH32 0xFFFFFFFFFFFFFF00000000000000000000FFFFFFFFFFFFFFFFFFFFFFFFFFFFFF SWAP2 SWAP1 SWAP6 AND PUSH2 0x100 MUL PUSH15 0xFFFFFFFFFFFFFFFFFFFFFFFFFFFF00 NOT SWAP10 ISZERO ISZERO SWAP10 SWAP1 SWAP10 AND PUSH15 0xFFFFFFFFFFFFFFFFFFFFFFFFFFFFFF NOT SWAP1 SWAP5 AND SWAP4 SWAP1 SWAP4 OR SWAP8 SWAP1 SWAP8 OR SWAP2 SWAP1 SWAP2 AND SWAP2 SWAP1 SWAP2 OR OR SWAP1 SSTORE DUP4 MLOAD DUP6 DUP2 MSTORE SWAP1 DUP2 ADD SWAP3 SWAP1 SWAP3 MSTORE SWAP2 PUSH32 0xA5AE833D0BB1DCD632D98A8B70973E8516812898E19BF27B70071EBC8DC52C01 SWAP2 ADD PUSH1 0x40 MLOAD DUP1 SWAP2 SUB SWAP1 LOG2 POP POP POP JUMP JUMPDEST CALLER PUSH1 0x0 SWAP1 DUP2 MSTORE PUSH1 0x1 PUSH1 0x20 SWAP1 DUP2 MSTORE PUSH1 0x40 DUP1 DUP4 KECCAK256 PUSH24 0xFFFFFFFFFFFFFFFFFFFFFFFFFFFFFFFFFFFFFFFFFFFFFFFF DUP6 AND DUP5 MSTORE SWAP1 SWAP2 MSTORE DUP2 KECCAK256 DUP1 SLOAD SWAP2 PUSH2 0xBA3 DUP4 PUSH2 0x33F6 JUMP JUMPDEST SWAP2 SWAP1 POP SSTORE POP POP JUMP JUMPDEST CALLER PUSH1 0x0 SWAP1 DUP2 MSTORE PUSH1 0x20 DUP2 SWAP1 MSTORE PUSH1 0x40 SWAP1 KECCAK256 DUP1 SLOAD DUP3 GT ISZERO PUSH2 0xC0B JUMPI PUSH1 0x40 MLOAD PUSH3 0x461BCD PUSH1 0xE5 SHL DUP2 MSTORE PUSH1 0x20 PUSH1 0x4 DUP3 ADD MSTORE PUSH1 0x19 PUSH1 0x24 DUP3 ADD MSTORE PUSH32 0x576974686472617720616D6F756E7420746F6F206C6172676500000000000000 PUSH1 0x44 DUP3 ADD MSTORE PUSH1 0x64 ADD PUSH2 0x640 JUMP JUMPDEST DUP1 SLOAD PUSH2 0xC18 SWAP1 DUP4 SWAP1 PUSH2 0x340F JUMP JUMPDEST DUP2 SSTORE PUSH1 0x40 DUP1 MLOAD PUSH1 0x1 PUSH1 0x1 PUSH1 0xA0 SHL SUB DUP6 AND DUP2 MSTORE PUSH1 0x20 DUP2 ADD DUP5 SWAP1 MSTORE CALLER SWAP2 PUSH32 0xD1C19FBCD4551A5EDFB66D43D2E337C04837AFDA3482B42BDF569A8FCCDAE5FB SWAP2 ADD PUSH1 0x40 MLOAD DUP1 SWAP2 SUB SWAP1 LOG2 PUSH1 0x0 DUP4 PUSH1 0x1 PUSH1 0x1 PUSH1 0xA0 SHL SUB AND DUP4 PUSH1 0x40 MLOAD PUSH1 0x0 PUSH1 0x40 MLOAD DUP1 DUP4 SUB DUP2 DUP6 DUP8 GAS CALL SWAP3 POP POP POP RETURNDATASIZE DUP1 PUSH1 0x0 DUP2 EQ PUSH2 0xCAB JUMPI PUSH1 0x40 MLOAD SWAP2 POP PUSH1 0x1F NOT PUSH1 0x3F RETURNDATASIZE ADD AND DUP3 ADD PUSH1 0x40 MSTORE RETURNDATASIZE DUP3 MSTORE RETURNDATASIZE PUSH1 0x0 PUSH1 0x20 DUP5 ADD RETURNDATACOPY PUSH2 0xCB0 JUMP JUMPDEST PUSH1 0x60 SWAP2 POP JUMPDEST POP POP SWAP1 POP DUP1 PUSH2 0xD01 JUMPI PUSH1 0x40 MLOAD PUSH3 0x461BCD PUSH1 0xE5 SHL DUP2 MSTORE PUSH1 0x20 PUSH1 0x4 DUP3 ADD MSTORE PUSH1 0x12 PUSH1 0x24 DUP3 ADD MSTORE PUSH32 0x6661696C656420746F2077697468647261770000000000000000000000000000 PUSH1 0x44 DUP3 ADD MSTORE PUSH1 0x64 ADD PUSH2 0x640 JUMP JUMPDEST POP POP POP POP JUMP JUMPDEST PUSH1 0x0 PUSH2 0xD12 DUP3 PUSH2 0x1A93 JUMP JUMPDEST PUSH1 0x40 DUP1 MLOAD PUSH1 0x20 DUP2 ADD SWAP3 SWAP1 SWAP3 MSTORE ADDRESS SWAP1 DUP3 ADD MSTORE CHAINID PUSH1 0x60 DUP3 ADD MSTORE PUSH1 0x80 ADD PUSH1 0x40 MLOAD PUSH1 0x20 DUP2 DUP4 SUB SUB DUP2 MSTORE SWAP1 PUSH1 0x40 MSTORE DUP1 MLOAD SWAP1 PUSH1 0x20 ADD KECCAK256 SWAP1 POP SWAP2 SWAP1 POP JUMP JUMPDEST PUSH2 0xD51 PUSH2 0x1AAC JUMP JUMPDEST DUP2 PUSH1 0x0 DUP2 PUSH8 0xFFFFFFFFFFFFFFFF DUP2 GT ISZERO PUSH2 0xD6D JUMPI PUSH2 0xD6D PUSH2 0x2E09 JUMP JUMPDEST PUSH1 0x40 MLOAD SWAP1 DUP1 DUP3 MSTORE DUP1 PUSH1 0x20 MUL PUSH1 0x20 ADD DUP3 ADD PUSH1 0x40 MSTORE DUP1 ISZERO PUSH2 0xDA6 JUMPI DUP2 PUSH1 0x20 ADD JUMPDEST PUSH2 0xD93 PUSH2 0x2D71 JUMP JUMPDEST DUP2 MSTORE PUSH1 0x20 ADD SWAP1 PUSH1 0x1 SWAP1 SUB SWAP1 DUP2 PUSH2 0xD8B JUMPI SWAP1 POP JUMPDEST POP SWAP1 POP PUSH1 0x0 JUMPDEST DUP3 DUP2 LT ISZERO PUSH2 0xE1F JUMPI PUSH1 0x0 DUP3 DUP3 DUP2 MLOAD DUP2 LT PUSH2 0xDC8 JUMPI PUSH2 0xDC8 PUSH2 0x3422 JUMP JUMPDEST PUSH1 0x20 MUL PUSH1 0x20 ADD ADD MLOAD SWAP1 POP PUSH1 0x0 DUP1 PUSH2 0xE03 DUP5 DUP11 DUP11 DUP8 DUP2 DUP2 LT PUSH2 0xDEB JUMPI PUSH2 0xDEB PUSH2 0x3422 JUMP JUMPDEST SWAP1 POP PUSH1 0x20 MUL DUP2 ADD SWAP1 PUSH2 0xDFD SWAP2 SWAP1 PUSH2 0x3438 JUMP JUMPDEST DUP6 PUSH2 0x1AED JUMP JUMPDEST SWAP2 POP SWAP2 POP PUSH2 0xE14 DUP5 DUP4 DUP4 PUSH1 0x0 PUSH2 0x1CF3 JUMP JUMPDEST POP POP POP PUSH1 0x1 ADD PUSH2 0xDAC JUMP JUMPDEST POP PUSH1 0x40 MLOAD PUSH1 0x0 SWAP1 PUSH32 0xBB47EE3E183A558B1A2FF0874B079F3FC5478B7454EACF2BFC5AF2FF5878F972 SWAP1 DUP3 SWAP1 LOG1 PUSH1 0x0 JUMPDEST DUP4 DUP2 LT ISZERO PUSH2 0xEA9 JUMPI PUSH2 0xE9D DUP2 DUP9 DUP9 DUP5 DUP2 DUP2 LT PUSH2 0xE6C JUMPI PUSH2 0xE6C PUSH2 0x3422 JUMP JUMPDEST SWAP1 POP PUSH1 0x20 MUL DUP2 ADD SWAP1 PUSH2 0xE7E SWAP2 SWAP1 PUSH2 0x3438 JUMP JUMPDEST DUP6 DUP5 DUP2 MLOAD DUP2 LT PUSH2 0xE90 JUMPI PUSH2 0xE90 PUSH2 0x3422 JUMP JUMPDEST PUSH1 0x20 MUL PUSH1 0x20 ADD ADD MLOAD PUSH2 0x1EBD JUMP JUMPDEST SWAP1 SWAP2 ADD SWAP1 PUSH1 0x1 ADD PUSH2 0xE4E JUMP JUMPDEST POP PUSH2 0xEB4 DUP5 DUP3 PUSH2 0x21B9 JUMP JUMPDEST POP POP POP PUSH2 0xEC1 PUSH1 0x1 PUSH1 0x2 SSTORE JUMP JUMPDEST POP POP POP JUMP JUMPDEST PUSH1 0x0 DUP1 DUP5 PUSH1 0x1 PUSH1 0x1 PUSH1 0xA0 SHL SUB AND DUP5 DUP5 PUSH1 0x40 MLOAD PUSH2 0xEE3 SWAP3 SWAP2 SWAP1 PUSH2 0x3459 JUMP JUMPDEST PUSH1 0x0 PUSH1 0x40 MLOAD DUP1 DUP4 SUB DUP2 DUP6 GAS DELEGATECALL SWAP2 POP POP RETURNDATASIZE DUP1 PUSH1 0x0 DUP2 EQ PUSH2 0xF1E JUMPI PUSH1 0x40 MLOAD SWAP2 POP PUSH1 0x1F NOT PUSH1 0x3F RETURNDATASIZE ADD AND DUP3 ADD PUSH1 0x40 MSTORE RETURNDATASIZE DUP3 MSTORE RETURNDATASIZE PUSH1 0x0 PUSH1 0x20 DUP5 ADD RETURNDATACOPY PUSH2 0xF23 JUMP JUMPDEST PUSH1 0x60 SWAP2 POP JUMPDEST POP SWAP2 POP SWAP2 POP DUP2 DUP2 PUSH1 0x40 MLOAD PUSH32 0x9941055400000000000000000000000000000000000000000000000000000000 DUP2 MSTORE PUSH1 0x4 ADD PUSH2 0x640 SWAP3 SWAP2 SWAP1 PUSH2 0x3469 JUMP JUMPDEST PUSH1 0x40 MLOAD PUSH32 0x570E1A3600000000000000000000000000000000000000000000000000000000 DUP2 MSTORE PUSH1 0x0 SWAP1 PUSH1 0x1 PUSH1 0x1 PUSH1 0xA0 SHL SUB PUSH32 0x0 AND SWAP1 PUSH4 0x570E1A36 SWAP1 PUSH2 0xFC8 SWAP1 DUP7 SWAP1 DUP7 SWAP1 PUSH1 0x4 ADD PUSH2 0x34AD JUMP JUMPDEST PUSH1 0x20 PUSH1 0x40 MLOAD DUP1 DUP4 SUB DUP2 PUSH1 0x0 DUP8 GAS CALL ISZERO DUP1 ISZERO PUSH2 0xFE7 JUMPI RETURNDATASIZE PUSH1 0x0 DUP1 RETURNDATACOPY RETURNDATASIZE PUSH1 0x0 REVERT JUMPDEST POP POP POP POP PUSH1 0x40 MLOAD RETURNDATASIZE PUSH1 0x1F NOT PUSH1 0x1F DUP3 ADD AND DUP3 ADD DUP1 PUSH1 0x40 MSTORE POP DUP2 ADD SWAP1 PUSH2 0x100B SWAP2 SWAP1 PUSH2 0x34C1 JUMP JUMPDEST PUSH1 0x40 MLOAD PUSH32 0x6CA7B80600000000000000000000000000000000000000000000000000000000 DUP2 MSTORE PUSH1 0x1 PUSH1 0x1 PUSH1 0xA0 SHL SUB DUP3 AND PUSH1 0x4 DUP3 ADD MSTORE SWAP1 SWAP2 POP PUSH1 0x24 ADD PUSH2 0x640 JUMP JUMPDEST CALLER PUSH1 0x0 SWAP1 DUP2 MSTORE PUSH1 0x20 DUP2 SWAP1 MSTORE PUSH1 0x40 DUP2 KECCAK256 PUSH1 0x1 DUP2 ADD SLOAD SWAP1 SWAP2 PUSH1 0x1 PUSH1 0x78 SHL SWAP1 SWAP2 DIV PUSH4 0xFFFFFFFF AND SWAP1 SUB PUSH2 0x10BD JUMPI PUSH1 0x40 MLOAD PUSH3 0x461BCD PUSH1 0xE5 SHL DUP2 MSTORE PUSH1 0x20 PUSH1 0x4 DUP3 ADD MSTORE PUSH1 0xA PUSH1 0x24 DUP3 ADD MSTORE PUSH32 0x6E6F74207374616B656400000000000000000000000000000000000000000000 PUSH1 0x44 DUP3 ADD MSTORE PUSH1 0x64 ADD PUSH2 0x640 JUMP JUMPDEST PUSH1 0x1 DUP2 ADD SLOAD PUSH1 0xFF AND PUSH2 0x1111 JUMPI PUSH1 0x40 MLOAD PUSH3 0x461BCD PUSH1 0xE5 SHL DUP2 MSTORE PUSH1 0x20 PUSH1 0x4 DUP3 ADD MSTORE PUSH1 0x11 PUSH1 0x24 DUP3 ADD MSTORE PUSH32 0x616C726561647920756E7374616B696E67000000000000000000000000000000 PUSH1 0x44 DUP3 ADD MSTORE PUSH1 0x64 ADD PUSH2 0x640 JUMP JUMPDEST PUSH1 0x1 DUP2 ADD SLOAD PUSH1 0x0 SWAP1 PUSH2 0x1130 SWAP1 PUSH1 0x1 PUSH1 0x78 SHL SWAP1 DIV PUSH4 0xFFFFFFFF AND TIMESTAMP PUSH2 0x34DE JUMP JUMPDEST PUSH1 0x1 DUP4 ADD DUP1 SLOAD PUSH32 0xFFFFFFFFFFFFFF000000000000FFFFFFFFFFFFFFFFFFFFFFFFFFFFFFFFFFFF00 AND PUSH1 0x1 PUSH1 0x98 SHL PUSH6 0xFFFFFFFFFFFF DUP5 AND SWAP1 DUP2 MUL PUSH1 0xFF NOT AND SWAP2 SWAP1 SWAP2 OR SWAP1 SWAP2 SSTORE PUSH1 0x40 MLOAD SWAP1 DUP2 MSTORE SWAP1 SWAP2 POP CALLER SWAP1 PUSH32 0xFA9B3C14CC825C412C9ED81B3BA365A5B459439403F18829E572ED53A4180F0A SWAP1 PUSH1 0x20 ADD PUSH2 0x5E3 JUMP JUMPDEST CALLER PUSH1 0x0 SWAP1 DUP2 MSTORE PUSH1 0x20 DUP2 SWAP1 MSTORE PUSH1 0x40 SWAP1 KECCAK256 PUSH1 0x1 DUP2 ADD SLOAD PUSH2 0x100 SWAP1 DIV PUSH14 0xFFFFFFFFFFFFFFFFFFFFFFFFFFFF AND DUP1 PUSH2 0x121F JUMPI PUSH1 0x40 MLOAD PUSH3 0x461BCD PUSH1 0xE5 SHL DUP2 MSTORE PUSH1 0x20 PUSH1 0x4 DUP3 ADD MSTORE PUSH1 0x14 PUSH1 0x24 DUP3 ADD MSTORE PUSH32 0x4E6F207374616B6520746F207769746864726177000000000000000000000000 PUSH1 0x44 DUP3 ADD MSTORE PUSH1 0x64 ADD PUSH2 0x640 JUMP JUMPDEST PUSH1 0x1 DUP3 ADD SLOAD PUSH1 0x1 PUSH1 0x98 SHL SWAP1 DIV PUSH6 0xFFFFFFFFFFFF AND PUSH2 0x127F JUMPI PUSH1 0x40 MLOAD PUSH3 0x461BCD PUSH1 0xE5 SHL DUP2 MSTORE PUSH1 0x20 PUSH1 0x4 DUP3 ADD MSTORE PUSH1 0x1D PUSH1 0x24 DUP3 ADD MSTORE PUSH32 0x6D7573742063616C6C20756E6C6F636B5374616B652829206669727374000000 PUSH1 0x44 DUP3 ADD MSTORE PUSH1 0x64 ADD PUSH2 0x640 JUMP JUMPDEST PUSH1 0x1 DUP3 ADD SLOAD TIMESTAMP PUSH1 0x1 PUSH1 0x98 SHL SWAP1 SWAP2 DIV PUSH6 0xFFFFFFFFFFFF AND GT ISZERO PUSH2 0x12E3 JUMPI PUSH1 0x40 MLOAD PUSH3 0x461BCD PUSH1 0xE5 SHL DUP2 MSTORE PUSH1 0x20 PUSH1 0x4 DUP3 ADD MSTORE PUSH1 0x1B PUSH1 0x24 DUP3 ADD MSTORE PUSH32 0x5374616B65207769746864726177616C206973206E6F74206475650000000000 PUSH1 0x44 DUP3 ADD MSTORE PUSH1 0x64 ADD PUSH2 0x640 JUMP JUMPDEST PUSH1 0x1 DUP3 ADD DUP1 SLOAD PUSH32 0xFFFFFFFFFFFFFF000000000000000000000000000000000000000000000000FF AND SWAP1 SSTORE PUSH1 0x40 DUP1 MLOAD PUSH1 0x1 PUSH1 0x1 PUSH1 0xA0 SHL SUB DUP6 AND DUP2 MSTORE PUSH1 0x20 DUP2 ADD DUP4 SWAP1 MSTORE CALLER SWAP2 PUSH32 0xB7C918E0E249F999E965CAFEB6C664271B3F4317D296461500E71DA39F0CBDA3 SWAP2 ADD PUSH1 0x40 MLOAD DUP1 SWAP2 SUB SWAP1 LOG2 PUSH1 0x0 DUP4 PUSH1 0x1 PUSH1 0x1 PUSH1 0xA0 SHL SUB AND DUP3 PUSH1 0x40 MLOAD PUSH1 0x0 PUSH1 0x40 MLOAD DUP1 DUP4 SUB DUP2 DUP6 DUP8 GAS CALL SWAP3 POP POP POP RETURNDATASIZE DUP1 PUSH1 0x0 DUP2 EQ PUSH2 0x139E JUMPI PUSH1 0x40 MLOAD SWAP2 POP PUSH1 0x1F NOT PUSH1 0x3F RETURNDATASIZE ADD AND DUP3 ADD PUSH1 0x40 MSTORE RETURNDATASIZE DUP3 MSTORE RETURNDATASIZE PUSH1 0x0 PUSH1 0x20 DUP5 ADD RETURNDATACOPY PUSH2 0x13A3 JUMP JUMPDEST PUSH1 0x60 SWAP2 POP JUMPDEST POP POP SWAP1 POP DUP1 PUSH2 0xD01 JUMPI PUSH1 0x40 MLOAD PUSH3 0x461BCD PUSH1 0xE5 SHL DUP2 MSTORE PUSH1 0x20 PUSH1 0x4 DUP3 ADD MSTORE PUSH1 0x18 PUSH1 0x24 DUP3 ADD MSTORE PUSH32 0x6661696C656420746F207769746864726177207374616B650000000000000000 PUSH1 0x44 DUP3 ADD MSTORE PUSH1 0x64 ADD PUSH2 0x640 JUMP JUMPDEST PUSH2 0x13FC PUSH2 0x1AAC JUMP JUMPDEST DUP2 PUSH1 0x0 DUP1 JUMPDEST DUP3 DUP2 LT ISZERO PUSH2 0x1582 JUMPI CALLDATASIZE DUP7 DUP7 DUP4 DUP2 DUP2 LT PUSH2 0x141C JUMPI PUSH2 0x141C PUSH2 0x3422 JUMP JUMPDEST SWAP1 POP PUSH1 0x20 MUL DUP2 ADD SWAP1 PUSH2 0x142E SWAP2 SWAP1 PUSH2 0x3504 JUMP JUMPDEST SWAP1 POP CALLDATASIZE PUSH1 0x0 PUSH2 0x143D DUP4 DUP1 PUSH2 0x351A JUMP JUMPDEST SWAP1 SWAP3 POP SWAP1 POP PUSH1 0x0 PUSH2 0x1454 PUSH1 0x40 DUP6 ADD PUSH1 0x20 DUP7 ADD PUSH2 0x31FE JUMP JUMPDEST SWAP1 POP PUSH1 0x0 NOT PUSH1 0x1 PUSH1 0x1 PUSH1 0xA0 SHL SUB DUP3 AND ADD PUSH2 0x14B0 JUMPI PUSH1 0x40 MLOAD PUSH3 0x461BCD PUSH1 0xE5 SHL DUP2 MSTORE PUSH1 0x20 PUSH1 0x4 DUP3 ADD MSTORE PUSH1 0x17 PUSH1 0x24 DUP3 ADD MSTORE PUSH32 0x4141393620696E76616C69642061676772656761746F72000000000000000000 PUSH1 0x44 DUP3 ADD MSTORE PUSH1 0x64 ADD PUSH2 0x640 JUMP JUMPDEST PUSH1 0x1 PUSH1 0x1 PUSH1 0xA0 SHL SUB DUP2 AND ISZERO PUSH2 0x1566 JUMPI PUSH1 0x1 PUSH1 0x1 PUSH1 0xA0 SHL SUB DUP2 AND PUSH4 0x2DD81133 DUP5 DUP5 PUSH2 0x14DD PUSH1 0x40 DUP10 ADD DUP10 PUSH2 0x3564 JUMP JUMPDEST PUSH1 0x40 MLOAD DUP6 PUSH4 0xFFFFFFFF AND PUSH1 0xE0 SHL DUP2 MSTORE PUSH1 0x4 ADD PUSH2 0x14FC SWAP5 SWAP4 SWAP3 SWAP2 SWAP1 PUSH2 0x36D0 JUMP JUMPDEST PUSH1 0x0 PUSH1 0x40 MLOAD DUP1 DUP4 SUB DUP2 DUP7 DUP1 EXTCODESIZE ISZERO DUP1 ISZERO PUSH2 0x1514 JUMPI PUSH1 0x0 DUP1 REVERT JUMPDEST POP GAS STATICCALL SWAP3 POP POP POP DUP1 ISZERO PUSH2 0x1525 JUMPI POP PUSH1 0x1 JUMPDEST PUSH2 0x1566 JUMPI PUSH1 0x40 MLOAD PUSH32 0x86A9F75000000000000000000000000000000000000000000000000000000000 DUP2 MSTORE PUSH1 0x1 PUSH1 0x1 PUSH1 0xA0 SHL SUB DUP3 AND PUSH1 0x4 DUP3 ADD MSTORE PUSH1 0x24 ADD PUSH2 0x640 JUMP JUMPDEST PUSH2 0x1570 DUP3 DUP8 PUSH2 0x33E3 JUMP JUMPDEST SWAP6 POP POP PUSH1 0x1 SWAP1 SWAP4 ADD SWAP3 POP PUSH2 0x1401 SWAP2 POP POP JUMP JUMPDEST POP PUSH1 0x0 DUP2 PUSH8 0xFFFFFFFFFFFFFFFF DUP2 GT ISZERO PUSH2 0x159E JUMPI PUSH2 0x159E PUSH2 0x2E09 JUMP JUMPDEST PUSH1 0x40 MLOAD SWAP1 DUP1 DUP3 MSTORE DUP1 PUSH1 0x20 MUL PUSH1 0x20 ADD DUP3 ADD PUSH1 0x40 MSTORE DUP1 ISZERO PUSH2 0x15D7 JUMPI DUP2 PUSH1 0x20 ADD JUMPDEST PUSH2 0x15C4 PUSH2 0x2D71 JUMP JUMPDEST DUP2 MSTORE PUSH1 0x20 ADD SWAP1 PUSH1 0x1 SWAP1 SUB SWAP1 DUP2 PUSH2 0x15BC JUMPI SWAP1 POP JUMPDEST POP SWAP1 POP PUSH1 0x0 DUP1 JUMPDEST DUP5 DUP2 LT ISZERO PUSH2 0x16B4 JUMPI CALLDATASIZE DUP9 DUP9 DUP4 DUP2 DUP2 LT PUSH2 0x15F9 JUMPI PUSH2 0x15F9 PUSH2 0x3422 JUMP JUMPDEST SWAP1 POP PUSH1 0x20 MUL DUP2 ADD SWAP1 PUSH2 0x160B SWAP2 SWAP1 PUSH2 0x3504 JUMP JUMPDEST SWAP1 POP CALLDATASIZE PUSH1 0x0 PUSH2 0x161A DUP4 DUP1 PUSH2 0x351A JUMP JUMPDEST SWAP1 SWAP3 POP SWAP1 POP PUSH1 0x0 PUSH2 0x1631 PUSH1 0x40 DUP6 ADD PUSH1 0x20 DUP7 ADD PUSH2 0x31FE JUMP JUMPDEST SWAP1 POP DUP2 PUSH1 0x0 JUMPDEST DUP2 DUP2 LT ISZERO PUSH2 0x16A2 JUMPI PUSH1 0x0 DUP10 DUP10 DUP2 MLOAD DUP2 LT PUSH2 0x1653 JUMPI PUSH2 0x1653 PUSH2 0x3422 JUMP JUMPDEST PUSH1 0x20 MUL PUSH1 0x20 ADD ADD MLOAD SWAP1 POP PUSH1 0x0 DUP1 PUSH2 0x1676 DUP12 DUP10 DUP10 DUP8 DUP2 DUP2 LT PUSH2 0xDEB JUMPI PUSH2 0xDEB PUSH2 0x3422 JUMP JUMPDEST SWAP2 POP SWAP2 POP PUSH2 0x1686 DUP5 DUP4 DUP4 DUP10 PUSH2 0x1CF3 JUMP JUMPDEST DUP11 PUSH2 0x1690 DUP2 PUSH2 0x33F6 JUMP JUMPDEST SWAP12 POP POP PUSH1 0x1 SWAP1 SWAP4 ADD SWAP3 POP PUSH2 0x1637 SWAP2 POP POP JUMP JUMPDEST POP POP PUSH1 0x1 SWAP1 SWAP5 ADD SWAP4 POP PUSH2 0x15DE SWAP3 POP POP POP JUMP JUMPDEST POP PUSH1 0x40 MLOAD PUSH32 0xBB47EE3E183A558B1A2FF0874B079F3FC5478B7454EACF2BFC5AF2FF5878F972 SWAP1 PUSH1 0x0 SWAP1 LOG1 POP PUSH1 0x0 DUP1 DUP1 JUMPDEST DUP6 DUP2 LT ISZERO PUSH2 0x17E2 JUMPI CALLDATASIZE DUP10 DUP10 DUP4 DUP2 DUP2 LT PUSH2 0x16FF JUMPI PUSH2 0x16FF PUSH2 0x3422 JUMP JUMPDEST SWAP1 POP PUSH1 0x20 MUL DUP2 ADD SWAP1 PUSH2 0x1711 SWAP2 SWAP1 PUSH2 0x3504 JUMP JUMPDEST SWAP1 POP PUSH2 0x1723 PUSH1 0x40 DUP3 ADD PUSH1 0x20 DUP4 ADD PUSH2 0x31FE JUMP JUMPDEST PUSH1 0x1 PUSH1 0x1 PUSH1 0xA0 SHL SUB AND PUSH32 0x575FF3ACADD5AB348FE1855E217E0F3678F8D767D7494C9F9FEFBEE2E17CCA4D PUSH1 0x40 MLOAD PUSH1 0x40 MLOAD DUP1 SWAP2 SUB SWAP1 LOG2 CALLDATASIZE PUSH1 0x0 PUSH2 0x1765 DUP4 DUP1 PUSH2 0x351A JUMP JUMPDEST SWAP1 SWAP3 POP SWAP1 POP DUP1 PUSH1 0x0 JUMPDEST DUP2 DUP2 LT ISZERO PUSH2 0x17D1 JUMPI PUSH2 0x17B0 DUP9 DUP6 DUP6 DUP5 DUP2 DUP2 LT PUSH2 0x178C JUMPI PUSH2 0x178C PUSH2 0x3422 JUMP JUMPDEST SWAP1 POP PUSH1 0x20 MUL DUP2 ADD SWAP1 PUSH2 0x179E SWAP2 SWAP1 PUSH2 0x3438 JUMP JUMPDEST DUP12 DUP12 DUP2 MLOAD DUP2 LT PUSH2 0xE90 JUMPI PUSH2 0xE90 PUSH2 0x3422 JUMP JUMPDEST PUSH2 0x17BA SWAP1 DUP9 PUSH2 0x33E3 JUMP JUMPDEST SWAP7 POP DUP8 PUSH2 0x17C6 DUP2 PUSH2 0x33F6 JUMP JUMPDEST SWAP9 POP POP PUSH1 0x1 ADD PUSH2 0x176E JUMP JUMPDEST POP POP PUSH1 0x1 SWAP1 SWAP4 ADD SWAP3 POP PUSH2 0x16E4 SWAP2 POP POP JUMP JUMPDEST POP PUSH1 0x40 MLOAD PUSH1 0x0 SWAP1 PUSH32 0x575FF3ACADD5AB348FE1855E217E0F3678F8D767D7494C9F9FEFBEE2E17CCA4D SWAP1 DUP3 SWAP1 LOG2 PUSH2 0x1818 DUP7 DUP3 PUSH2 0x21B9 JUMP JUMPDEST POP POP POP POP POP PUSH2 0xEC1 PUSH1 0x1 PUSH1 0x2 SSTORE JUMP JUMPDEST PUSH1 0x1 PUSH1 0x1 PUSH1 0xA0 SHL SUB DUP3 AND PUSH1 0x0 SWAP1 DUP2 MSTORE PUSH1 0x20 DUP2 SWAP1 MSTORE PUSH1 0x40 DUP2 KECCAK256 DUP1 SLOAD DUP3 SWAP1 PUSH2 0x184E SWAP1 DUP6 SWAP1 PUSH2 0x33E3 JUMP JUMPDEST SWAP2 DUP3 SWAP1 SSTORE POP SWAP4 SWAP3 POP POP POP JUMP JUMPDEST PUSH1 0x0 DUP1 PUSH1 0x0 DUP5 MLOAD PUSH1 0x20 DUP7 ADD DUP8 DUP10 DUP8 CALL SWAP6 SWAP5 POP POP POP POP POP JUMP JUMPDEST PUSH1 0x60 RETURNDATASIZE DUP3 DUP2 GT ISZERO PUSH2 0x1880 JUMPI POP DUP2 JUMPDEST PUSH1 0x40 MLOAD PUSH1 0x20 DUP3 ADD DUP2 ADD PUSH1 0x40 MSTORE DUP2 DUP2 MSTORE DUP2 PUSH1 0x0 PUSH1 0x20 DUP4 ADD RETURNDATACOPY SWAP4 SWAP3 POP POP POP JUMP JUMPDEST PUSH1 0x0 DUP1 GAS DUP6 MLOAD SWAP1 SWAP2 POP PUSH1 0x0 SWAP1 DUP2 PUSH2 0x18B4 DUP3 PUSH2 0x22B2 JUMP JUMPDEST PUSH1 0xE0 DUP4 ADD MLOAD SWAP1 SWAP2 POP PUSH1 0x1 PUSH1 0x1 PUSH1 0xA0 SHL SUB DUP2 AND PUSH2 0x18D3 JUMPI DUP3 MLOAD SWAP4 POP PUSH2 0x19C1 JUMP JUMPDEST DUP1 SWAP4 POP PUSH1 0x0 DUP9 MLOAD GT ISZERO PUSH2 0x19C1 JUMPI DUP7 DUP3 MUL SWAP6 POP PUSH1 0x2 DUP11 PUSH1 0x2 DUP2 GT ISZERO PUSH2 0x18F9 JUMPI PUSH2 0x18F9 PUSH2 0x374D JUMP JUMPDEST EQ PUSH2 0x19C1 JUMPI PUSH1 0xA0 DUP4 ADD MLOAD PUSH1 0x40 MLOAD PUSH32 0x7C627B2100000000000000000000000000000000000000000000000000000000 DUP2 MSTORE PUSH1 0x1 PUSH1 0x1 PUSH1 0xA0 SHL SUB DUP4 AND SWAP2 PUSH4 0x7C627B21 SWAP2 PUSH2 0x194E SWAP1 DUP15 SWAP1 DUP14 SWAP1 DUP13 SWAP1 DUP10 SWAP1 PUSH1 0x4 ADD PUSH2 0x3763 JUMP JUMPDEST PUSH1 0x0 PUSH1 0x40 MLOAD DUP1 DUP4 SUB DUP2 PUSH1 0x0 DUP9 DUP1 EXTCODESIZE ISZERO DUP1 ISZERO PUSH2 0x1968 JUMPI PUSH1 0x0 DUP1 REVERT JUMPDEST POP DUP8 CALL SWAP4 POP POP POP POP DUP1 ISZERO PUSH2 0x197A JUMPI POP PUSH1 0x1 JUMPDEST PUSH2 0x19C1 JUMPI PUSH1 0x0 PUSH2 0x198B PUSH2 0x800 PUSH2 0x1872 JUMP JUMPDEST SWAP1 POP DUP1 PUSH1 0x40 MLOAD PUSH32 0xAD7954BC00000000000000000000000000000000000000000000000000000000 DUP2 MSTORE PUSH1 0x4 ADD PUSH2 0x640 SWAP2 SWAP1 PUSH2 0x37AD JUMP JUMPDEST GAS PUSH1 0xA0 DUP5 ADD MLOAD PUSH1 0x60 DUP6 ADD MLOAD PUSH1 0x80 DUP13 ADD MLOAD SWAP3 DUP9 SUB SWAP10 SWAP1 SWAP10 ADD SWAP9 ADD SWAP1 DUP9 SUB DUP1 DUP3 GT ISZERO PUSH2 0x19F4 JUMPI PUSH1 0x64 PUSH1 0xA DUP3 DUP5 SUB MUL DIV SWAP9 SWAP1 SWAP9 ADD SWAP8 JUMPDEST POP POP PUSH1 0x40 DUP10 ADD MLOAD DUP8 DUP4 MUL SWAP7 POP DUP7 DUP2 LT ISZERO PUSH2 0x1A50 JUMPI PUSH1 0x2 DUP12 PUSH1 0x2 DUP2 GT ISZERO PUSH2 0x1A1C JUMPI PUSH2 0x1A1C PUSH2 0x374D JUMP JUMPDEST SUB PUSH2 0x1A3F JUMPI DUP1 SWAP7 POP PUSH2 0x1A2D DUP11 PUSH2 0x22E4 JUMP JUMPDEST PUSH2 0x1A3A DUP11 PUSH1 0x0 DUP10 DUP12 PUSH2 0x2333 JUMP JUMPDEST PUSH2 0x1A85 JUMP JUMPDEST PUSH4 0xDEADAA51 PUSH1 0xE0 SHL PUSH1 0x0 MSTORE PUSH1 0x20 PUSH1 0x0 REVERT JUMPDEST DUP7 DUP2 SUB PUSH2 0x1A5D DUP7 DUP3 PUSH2 0x1827 JUMP JUMPDEST POP PUSH1 0x0 DUP1 DUP14 PUSH1 0x2 DUP2 GT ISZERO PUSH2 0x1A73 JUMPI PUSH2 0x1A73 PUSH2 0x374D JUMP JUMPDEST EQ SWAP1 POP PUSH2 0x1A82 DUP13 DUP3 DUP12 DUP14 PUSH2 0x2333 JUMP JUMPDEST POP POP JUMPDEST POP POP POP POP POP POP SWAP5 SWAP4 POP POP POP POP JUMP JUMPDEST PUSH1 0x0 PUSH2 0x1A9E DUP3 PUSH2 0x23AE JUMP JUMPDEST DUP1 MLOAD SWAP1 PUSH1 0x20 ADD KECCAK256 SWAP1 POP SWAP2 SWAP1 POP JUMP JUMPDEST PUSH1 0x2 DUP1 SLOAD SUB PUSH2 0x1AE7 JUMPI PUSH1 0x40 MLOAD PUSH32 0x3EE5AEB500000000000000000000000000000000000000000000000000000000 DUP2 MSTORE PUSH1 0x4 ADD PUSH1 0x40 MLOAD DUP1 SWAP2 SUB SWAP1 REVERT JUMPDEST PUSH1 0x2 DUP1 SSTORE JUMP JUMPDEST PUSH1 0x0 DUP1 PUSH1 0x0 GAS DUP5 MLOAD SWAP1 SWAP2 POP PUSH2 0x1B02 DUP7 DUP3 PUSH2 0x2466 JUMP JUMPDEST PUSH2 0x1B0B DUP7 PUSH2 0xD07 JUMP JUMPDEST PUSH1 0x20 DUP7 ADD MSTORE PUSH1 0x40 DUP2 ADD MLOAD PUSH2 0x120 DUP3 ADD MLOAD PUSH2 0x100 DUP4 ADD MLOAD PUSH1 0xA0 DUP5 ADD MLOAD PUSH1 0x80 DUP6 ADD MLOAD PUSH1 0x60 DUP7 ADD MLOAD PUSH1 0xC0 DUP8 ADD MLOAD DUP7 OR OR OR OR OR OR PUSH15 0xFFFFFFFFFFFFFFFFFFFFFFFFFFFFFF DUP2 GT ISZERO PUSH2 0x1B9B JUMPI PUSH1 0x40 MLOAD PUSH3 0x461BCD PUSH1 0xE5 SHL DUP2 MSTORE PUSH1 0x20 PUSH1 0x4 DUP3 ADD MSTORE PUSH1 0x18 PUSH1 0x24 DUP3 ADD MSTORE PUSH32 0x41413934206761732076616C756573206F766572666C6F770000000000000000 PUSH1 0x44 DUP3 ADD MSTORE PUSH1 0x64 ADD PUSH2 0x640 JUMP JUMPDEST PUSH1 0x0 PUSH2 0x1BCA DUP5 PUSH1 0xC0 DUP2 ADD MLOAD PUSH1 0xA0 DUP3 ADD MLOAD PUSH1 0x80 DUP4 ADD MLOAD PUSH1 0x60 DUP5 ADD MLOAD PUSH1 0x40 DUP6 ADD MLOAD PUSH2 0x100 SWAP1 SWAP6 ADD MLOAD SWAP5 ADD ADD ADD ADD MUL SWAP1 JUMP JUMPDEST SWAP1 POP PUSH2 0x1BD9 DUP11 DUP11 DUP11 DUP5 DUP8 PUSH2 0x257D JUMP JUMPDEST SWAP7 POP PUSH2 0x1BED DUP5 PUSH1 0x0 ADD MLOAD DUP6 PUSH1 0x20 ADD MLOAD PUSH2 0x272D JUMP JUMPDEST PUSH2 0x1C43 JUMPI DUP10 PUSH1 0x40 MLOAD PUSH4 0x1101335B PUSH1 0xE1 SHL DUP2 MSTORE PUSH1 0x4 ADD PUSH2 0x640 SWAP2 DUP2 MSTORE PUSH1 0x40 PUSH1 0x20 DUP3 ADD DUP2 SWAP1 MSTORE PUSH1 0x1A SWAP1 DUP3 ADD MSTORE PUSH32 0x4141323520696E76616C6964206163636F756E74206E6F6E6365000000000000 PUSH1 0x60 DUP3 ADD MSTORE PUSH1 0x80 ADD SWAP1 JUMP JUMPDEST DUP3 GAS DUP7 SUB GT ISZERO PUSH2 0x1C9F JUMPI DUP10 PUSH1 0x40 MLOAD PUSH4 0x1101335B PUSH1 0xE1 SHL DUP2 MSTORE PUSH1 0x4 ADD PUSH2 0x640 SWAP2 DUP2 MSTORE PUSH1 0x40 PUSH1 0x20 DUP3 ADD DUP2 SWAP1 MSTORE PUSH1 0x1E SWAP1 DUP3 ADD MSTORE PUSH32 0x41413236206F76657220766572696669636174696F6E4761734C696D69740000 PUSH1 0x60 DUP3 ADD MSTORE PUSH1 0x80 ADD SWAP1 JUMP JUMPDEST PUSH1 0xE0 DUP5 ADD MLOAD PUSH1 0x60 SWAP1 PUSH1 0x1 PUSH1 0x1 PUSH1 0xA0 SHL SUB AND ISZERO PUSH2 0x1CC6 JUMPI PUSH2 0x1CC1 DUP12 DUP12 DUP12 DUP6 PUSH2 0x277B JUMP JUMPDEST SWAP8 POP SWAP1 POP JUMPDEST PUSH1 0x40 DUP10 ADD DUP3 SWAP1 MSTORE DUP1 PUSH1 0x60 DUP11 ADD MSTORE PUSH1 0xA0 DUP11 ADD CALLDATALOAD GAS DUP8 SUB ADD DUP10 PUSH1 0x80 ADD DUP2 DUP2 MSTORE POP POP POP POP POP POP POP POP SWAP4 POP SWAP4 SWAP2 POP POP JUMP JUMPDEST PUSH1 0x0 DUP1 PUSH2 0x1CFF DUP6 PUSH2 0x294F JUMP JUMPDEST SWAP2 POP SWAP2 POP DUP2 PUSH1 0x1 PUSH1 0x1 PUSH1 0xA0 SHL SUB AND DUP4 PUSH1 0x1 PUSH1 0x1 PUSH1 0xA0 SHL SUB AND EQ PUSH2 0x1D6E JUMPI DUP6 PUSH1 0x40 MLOAD PUSH4 0x1101335B PUSH1 0xE1 SHL DUP2 MSTORE PUSH1 0x4 ADD PUSH2 0x640 SWAP2 DUP2 MSTORE PUSH1 0x40 PUSH1 0x20 DUP3 ADD DUP2 SWAP1 MSTORE PUSH1 0x14 SWAP1 DUP3 ADD MSTORE PUSH32 0x41413234207369676E6174757265206572726F72000000000000000000000000 PUSH1 0x60 DUP3 ADD MSTORE PUSH1 0x80 ADD SWAP1 JUMP JUMPDEST DUP1 ISZERO PUSH2 0x1DC6 JUMPI DUP6 PUSH1 0x40 MLOAD PUSH4 0x1101335B PUSH1 0xE1 SHL DUP2 MSTORE PUSH1 0x4 ADD PUSH2 0x640 SWAP2 DUP2 MSTORE PUSH1 0x40 PUSH1 0x20 DUP3 ADD DUP2 SWAP1 MSTORE PUSH1 0x17 SWAP1 DUP3 ADD MSTORE PUSH32 0x414132322065787069726564206F72206E6F7420647565000000000000000000 PUSH1 0x60 DUP3 ADD MSTORE PUSH1 0x80 ADD SWAP1 JUMP JUMPDEST PUSH1 0x0 PUSH2 0x1DD1 DUP6 PUSH2 0x294F JUMP JUMPDEST SWAP3 POP SWAP1 POP PUSH1 0x1 PUSH1 0x1 PUSH1 0xA0 SHL SUB DUP2 AND ISZERO PUSH2 0x1E36 JUMPI DUP7 PUSH1 0x40 MLOAD PUSH4 0x1101335B PUSH1 0xE1 SHL DUP2 MSTORE PUSH1 0x4 ADD PUSH2 0x640 SWAP2 DUP2 MSTORE PUSH1 0x40 PUSH1 0x20 DUP3 ADD DUP2 SWAP1 MSTORE PUSH1 0x14 SWAP1 DUP3 ADD MSTORE PUSH32 0x41413334207369676E6174757265206572726F72000000000000000000000000 PUSH1 0x60 DUP3 ADD MSTORE PUSH1 0x80 ADD SWAP1 JUMP JUMPDEST DUP2 ISZERO PUSH2 0x1EB4 JUMPI DUP7 PUSH1 0x40 MLOAD PUSH4 0x1101335B PUSH1 0xE1 SHL DUP2 MSTORE PUSH1 0x4 ADD PUSH2 0x640 SWAP2 DUP2 MSTORE PUSH1 0x40 PUSH1 0x20 DUP3 ADD DUP2 SWAP1 MSTORE PUSH1 0x21 SWAP1 DUP3 ADD MSTORE PUSH32 0x41413332207061796D61737465722065787069726564206F72206E6F74206475 PUSH1 0x60 DUP3 ADD MSTORE PUSH32 0x6500000000000000000000000000000000000000000000000000000000000000 PUSH1 0x80 DUP3 ADD MSTORE PUSH1 0xA0 ADD SWAP1 JUMP JUMPDEST POP POP POP POP POP POP POP JUMP JUMPDEST PUSH1 0x0 DUP1 GAS SWAP1 POP PUSH1 0x0 PUSH2 0x1ED0 DUP5 PUSH1 0x60 ADD MLOAD SWAP1 JUMP JUMPDEST PUSH1 0x40 MLOAD SWAP1 SWAP2 POP PUSH1 0x0 SWAP1 CALLDATASIZE DUP3 PUSH2 0x1EE8 PUSH1 0x60 DUP11 ADD DUP11 PUSH2 0x3564 JUMP JUMPDEST SWAP2 POP SWAP2 POP PUSH1 0x60 PUSH1 0x0 DUP3 PUSH1 0x3 DUP2 GT ISZERO PUSH2 0x1EFF JUMPI DUP5 CALLDATALOAD SWAP2 POP JUMPDEST POP PUSH32 0x72288ED100000000000000000000000000000000000000000000000000000000 PUSH1 0x1 PUSH1 0x1 PUSH1 0xE0 SHL SUB NOT DUP3 AND ADD PUSH2 0x1FDF JUMPI PUSH1 0x0 DUP12 DUP12 PUSH1 0x20 ADD MLOAD PUSH1 0x40 MLOAD PUSH1 0x24 ADD PUSH2 0x1F4A SWAP3 SWAP2 SWAP1 PUSH2 0x37C0 JUMP JUMPDEST PUSH1 0x40 DUP1 MLOAD PUSH1 0x1F NOT DUP2 DUP5 SUB ADD DUP2 MSTORE SWAP2 DUP2 MSTORE PUSH1 0x20 DUP3 ADD DUP1 MLOAD PUSH1 0x1 PUSH1 0x1 PUSH1 0xE0 SHL SUB AND PUSH32 0x8DD7712F00000000000000000000000000000000000000000000000000000000 OR SWAP1 MSTORE MLOAD SWAP1 SWAP2 POP ADDRESS SWAP1 PUSH3 0x42DC53 SWAP1 PUSH2 0x1FAA SWAP1 DUP5 SWAP1 DUP16 SWAP1 DUP14 SWAP1 PUSH1 0x24 ADD PUSH2 0x388C JUMP JUMPDEST PUSH1 0x40 MLOAD PUSH1 0x20 DUP2 DUP4 SUB SUB DUP2 MSTORE SWAP1 PUSH1 0x40 MSTORE SWAP2 POP PUSH1 0xE0 SHL PUSH1 0x20 DUP3 ADD DUP1 MLOAD PUSH1 0x1 PUSH1 0x1 PUSH1 0xE0 SHL SUB DUP4 DUP2 DUP4 AND OR DUP4 MSTORE POP POP POP POP SWAP3 POP POP PUSH2 0x2034 JUMP JUMPDEST ADDRESS PUSH1 0x1 PUSH1 0x1 PUSH1 0xA0 SHL SUB AND PUSH3 0x42DC53 DUP6 DUP6 DUP14 DUP12 PUSH1 0x40 MLOAD PUSH1 0x24 ADD PUSH2 0x2004 SWAP5 SWAP4 SWAP3 SWAP2 SWAP1 PUSH2 0x38CC JUMP JUMPDEST PUSH1 0x40 MLOAD PUSH1 0x20 DUP2 DUP4 SUB SUB DUP2 MSTORE SWAP1 PUSH1 0x40 MSTORE SWAP2 POP PUSH1 0xE0 SHL PUSH1 0x20 DUP3 ADD DUP1 MLOAD PUSH1 0x1 PUSH1 0x1 PUSH1 0xE0 SHL SUB DUP4 DUP2 DUP4 AND OR DUP4 MSTORE POP POP POP POP SWAP2 POP JUMPDEST PUSH1 0x20 PUSH1 0x0 DUP4 MLOAD PUSH1 0x20 DUP6 ADD PUSH1 0x0 ADDRESS GAS CALL SWAP6 POP PUSH1 0x0 MLOAD SWAP9 POP DUP5 PUSH1 0x40 MSTORE POP POP POP POP POP DUP1 PUSH2 0x21AF JUMPI PUSH1 0x0 RETURNDATASIZE DUP1 PUSH1 0x20 SUB PUSH2 0x206F JUMPI PUSH1 0x20 PUSH1 0x0 DUP1 RETURNDATACOPY PUSH1 0x0 MLOAD SWAP2 POP JUMPDEST POP PUSH4 0xDEADDEAD PUSH1 0xE0 SHL DUP2 SUB PUSH2 0x20D0 JUMPI DUP8 PUSH1 0x40 MLOAD PUSH4 0x1101335B PUSH1 0xE1 SHL DUP2 MSTORE PUSH1 0x4 ADD PUSH2 0x640 SWAP2 DUP2 MSTORE PUSH1 0x40 PUSH1 0x20 DUP3 ADD DUP2 SWAP1 MSTORE PUSH1 0xF SWAP1 DUP3 ADD MSTORE PUSH32 0x41413935206F7574206F66206761730000000000000000000000000000000000 PUSH1 0x60 DUP3 ADD MSTORE PUSH1 0x80 ADD SWAP1 JUMP JUMPDEST PUSH4 0xDEADAA51 PUSH1 0xE0 SHL DUP2 SUB PUSH2 0x2121 JUMPI PUSH1 0x0 DUP7 PUSH1 0x80 ADD MLOAD GAS PUSH2 0x20F0 SWAP1 DUP8 PUSH2 0x340F JUMP JUMPDEST PUSH2 0x20FA SWAP2 SWAP1 PUSH2 0x33E3 JUMP JUMPDEST PUSH1 0x40 DUP9 ADD MLOAD SWAP1 SWAP2 POP PUSH2 0x210B DUP9 PUSH2 0x22E4 JUMP JUMPDEST PUSH2 0x2118 DUP9 PUSH1 0x0 DUP4 DUP6 PUSH2 0x2333 JUMP JUMPDEST SWAP6 POP PUSH2 0x21AD SWAP1 POP JUMP JUMPDEST DUP6 MLOAD DUP1 MLOAD PUSH1 0x20 DUP1 DUP10 ADD MLOAD SWAP3 ADD MLOAD PUSH1 0x1 PUSH1 0x1 PUSH1 0xA0 SHL SUB SWAP1 SWAP2 AND SWAP2 SWAP1 PUSH32 0xF62676F440FF169A3A9AFDBF812E89E7F95975EE8E5C31214FFDEF631C5F4792 SWAP1 PUSH2 0x2168 PUSH2 0x800 PUSH2 0x1872 JUMP JUMPDEST PUSH1 0x40 MLOAD PUSH2 0x2176 SWAP3 SWAP2 SWAP1 PUSH2 0x33B4 JUMP JUMPDEST PUSH1 0x40 MLOAD DUP1 SWAP2 SUB SWAP1 LOG3 PUSH1 0x0 DUP7 PUSH1 0x80 ADD MLOAD GAS PUSH2 0x2190 SWAP1 DUP8 PUSH2 0x340F JUMP JUMPDEST PUSH2 0x219A SWAP2 SWAP1 PUSH2 0x33E3 JUMP JUMPDEST SWAP1 POP PUSH2 0x21A9 PUSH1 0x2 DUP9 DUP7 DUP5 PUSH2 0x189E JUMP JUMPDEST SWAP6 POP POP JUMPDEST POP JUMPDEST POP POP POP SWAP4 SWAP3 POP POP POP JUMP JUMPDEST PUSH1 0x1 PUSH1 0x1 PUSH1 0xA0 SHL SUB DUP3 AND PUSH2 0x220F JUMPI PUSH1 0x40 MLOAD PUSH3 0x461BCD PUSH1 0xE5 SHL DUP2 MSTORE PUSH1 0x20 PUSH1 0x4 DUP3 ADD MSTORE PUSH1 0x18 PUSH1 0x24 DUP3 ADD MSTORE PUSH32 0x4141393020696E76616C69642062656E65666963696172790000000000000000 PUSH1 0x44 DUP3 ADD MSTORE PUSH1 0x64 ADD PUSH2 0x640 JUMP JUMPDEST PUSH1 0x0 DUP3 PUSH1 0x1 PUSH1 0x1 PUSH1 0xA0 SHL SUB AND DUP3 PUSH1 0x40 MLOAD PUSH1 0x0 PUSH1 0x40 MLOAD DUP1 DUP4 SUB DUP2 DUP6 DUP8 GAS CALL SWAP3 POP POP POP RETURNDATASIZE DUP1 PUSH1 0x0 DUP2 EQ PUSH2 0x225C JUMPI PUSH1 0x40 MLOAD SWAP2 POP PUSH1 0x1F NOT PUSH1 0x3F RETURNDATASIZE ADD AND DUP3 ADD PUSH1 0x40 MSTORE RETURNDATASIZE DUP3 MSTORE RETURNDATASIZE PUSH1 0x0 PUSH1 0x20 DUP5 ADD RETURNDATACOPY PUSH2 0x2261 JUMP JUMPDEST PUSH1 0x60 SWAP2 POP JUMPDEST POP POP SWAP1 POP DUP1 PUSH2 0xEC1 JUMPI PUSH1 0x40 MLOAD PUSH3 0x461BCD PUSH1 0xE5 SHL DUP2 MSTORE PUSH1 0x20 PUSH1 0x4 DUP3 ADD MSTORE PUSH1 0x1F PUSH1 0x24 DUP3 ADD MSTORE PUSH32 0x41413931206661696C65642073656E6420746F2062656E656669636961727900 PUSH1 0x44 DUP3 ADD MSTORE PUSH1 0x64 ADD PUSH2 0x640 JUMP JUMPDEST PUSH2 0x100 DUP2 ADD MLOAD PUSH2 0x120 DUP3 ADD MLOAD PUSH1 0x0 SWAP2 SWAP1 DUP1 DUP3 SUB PUSH2 0x22D0 JUMPI POP SWAP3 SWAP2 POP POP JUMP JUMPDEST PUSH2 0x22DC DUP3 BASEFEE DUP4 ADD PUSH2 0x29A2 JUMP JUMPDEST SWAP5 SWAP4 POP POP POP POP JUMP JUMPDEST DUP1 MLOAD DUP1 MLOAD PUSH1 0x20 DUP1 DUP5 ADD MLOAD SWAP3 DUP2 ADD MLOAD PUSH1 0x40 MLOAD SWAP1 DUP2 MSTORE PUSH1 0x1 PUSH1 0x1 PUSH1 0xA0 SHL SUB SWAP1 SWAP3 AND SWAP3 SWAP2 PUSH32 0x67B4FA9642F42120BF031F3051D1824B0FE25627945B27B8A6A65D5761D5482E SWAP2 ADD PUSH1 0x40 MLOAD DUP1 SWAP2 SUB SWAP1 LOG3 POP JUMP JUMPDEST DUP4 MLOAD PUSH1 0xE0 DUP2 ADD MLOAD DUP2 MLOAD PUSH1 0x20 DUP1 DUP9 ADD MLOAD SWAP4 ADD MLOAD PUSH1 0x40 MLOAD PUSH1 0x1 PUSH1 0x1 PUSH1 0xA0 SHL SUB SWAP4 DUP5 AND SWAP5 SWAP3 SWAP1 SWAP4 AND SWAP3 PUSH32 0x49628FD1471006C1482DA88028E9CE4DBB080B815C9B0344D39E5A8E6EC1419F SWAP2 PUSH2 0x23A0 SWAP2 DUP10 SWAP1 DUP10 SWAP1 DUP10 SWAP1 SWAP4 DUP5 MSTORE SWAP2 ISZERO ISZERO PUSH1 0x20 DUP5 ADD MSTORE PUSH1 0x40 DUP4 ADD MSTORE PUSH1 0x60 DUP3 ADD MSTORE PUSH1 0x80 ADD SWAP1 JUMP JUMPDEST PUSH1 0x40 MLOAD DUP1 SWAP2 SUB SWAP1 LOG4 POP POP POP POP JUMP JUMPDEST PUSH1 0x60 DUP2 CALLDATALOAD PUSH1 0x20 DUP4 ADD CALLDATALOAD PUSH1 0x0 PUSH2 0x23CE PUSH2 0x23C9 PUSH1 0x40 DUP8 ADD DUP8 PUSH2 0x3564 JUMP JUMPDEST PUSH2 0x29BA JUMP JUMPDEST SWAP1 POP PUSH1 0x0 PUSH2 0x23E2 PUSH2 0x23C9 PUSH1 0x60 DUP9 ADD DUP9 PUSH2 0x3564 JUMP JUMPDEST SWAP1 POP PUSH1 0x80 DUP7 ADD CALLDATALOAD PUSH1 0xA0 DUP8 ADD CALLDATALOAD PUSH1 0xC0 DUP9 ADD CALLDATALOAD PUSH1 0x0 PUSH2 0x2405 PUSH2 0x23C9 PUSH1 0xE0 DUP13 ADD DUP13 PUSH2 0x3564 JUMP JUMPDEST PUSH1 0x40 DUP1 MLOAD PUSH1 0x1 PUSH1 0x1 PUSH1 0xA0 SHL SUB SWAP11 SWAP1 SWAP11 AND PUSH1 0x20 DUP12 ADD MSTORE DUP10 DUP2 ADD SWAP9 SWAP1 SWAP9 MSTORE PUSH1 0x60 DUP10 ADD SWAP7 SWAP1 SWAP7 MSTORE POP PUSH1 0x80 DUP8 ADD SWAP4 SWAP1 SWAP4 MSTORE PUSH1 0xA0 DUP7 ADD SWAP2 SWAP1 SWAP2 MSTORE PUSH1 0xC0 DUP6 ADD MSTORE PUSH1 0xE0 DUP5 ADD MSTORE PUSH2 0x100 DUP1 DUP5 ADD SWAP2 SWAP1 SWAP2 MSTORE DUP2 MLOAD DUP1 DUP5 SUB SWAP1 SWAP2 ADD DUP2 MSTORE PUSH2 0x120 SWAP1 SWAP3 ADD SWAP1 MSTORE SWAP3 SWAP2 POP POP JUMP JUMPDEST PUSH2 0x2473 PUSH1 0x20 DUP4 ADD DUP4 PUSH2 0x31FE JUMP JUMPDEST PUSH1 0x1 PUSH1 0x1 PUSH1 0xA0 SHL SUB AND DUP2 MSTORE PUSH1 0x20 DUP3 DUP2 ADD CALLDATALOAD SWAP1 DUP3 ADD MSTORE PUSH16 0xFFFFFFFFFFFFFFFFFFFFFFFFFFFFFFFF PUSH1 0x80 DUP1 DUP5 ADD CALLDATALOAD DUP3 DUP2 AND PUSH1 0x60 DUP6 ADD MSTORE DUP2 SHR PUSH1 0x40 DUP5 ADD MSTORE PUSH1 0xA0 DUP5 ADD CALLDATALOAD PUSH1 0xC0 DUP1 DUP6 ADD SWAP2 SWAP1 SWAP2 MSTORE DUP5 ADD CALLDATALOAD SWAP2 DUP3 AND PUSH2 0x100 DUP5 ADD MSTORE SHR PUSH2 0x120 DUP3 ADD MSTORE CALLDATASIZE PUSH1 0x0 PUSH2 0x24DF PUSH1 0xE0 DUP6 ADD DUP6 PUSH2 0x3564 JUMP JUMPDEST SWAP1 SWAP3 POP SWAP1 POP DUP1 ISZERO PUSH2 0x2562 JUMPI PUSH1 0x34 DUP2 LT ISZERO PUSH2 0x253B JUMPI PUSH1 0x40 MLOAD PUSH3 0x461BCD PUSH1 0xE5 SHL DUP2 MSTORE PUSH1 0x20 PUSH1 0x4 DUP3 ADD MSTORE PUSH1 0x1D PUSH1 0x24 DUP3 ADD MSTORE PUSH32 0x4141393320696E76616C6964207061796D6173746572416E6444617461000000 PUSH1 0x44 DUP3 ADD MSTORE PUSH1 0x64 ADD PUSH2 0x640 JUMP JUMPDEST PUSH2 0x2545 DUP3 DUP3 PUSH2 0x29CD JUMP JUMPDEST PUSH1 0xA0 DUP7 ADD MSTORE PUSH1 0x80 DUP6 ADD MSTORE PUSH1 0x1 PUSH1 0x1 PUSH1 0xA0 SHL SUB AND PUSH1 0xE0 DUP5 ADD MSTORE PUSH2 0xD01 JUMP JUMPDEST PUSH1 0x0 PUSH1 0xE0 DUP5 ADD DUP2 SWAP1 MSTORE PUSH1 0x80 DUP5 ADD DUP2 SWAP1 MSTORE PUSH1 0xA0 DUP5 ADD MSTORE POP POP POP POP JUMP JUMPDEST DUP3 MLOAD DUP1 MLOAD PUSH1 0x0 SWAP2 SWAP1 PUSH2 0x259C DUP9 DUP8 PUSH2 0x2597 PUSH1 0x40 DUP12 ADD DUP12 PUSH2 0x3564 JUMP JUMPDEST PUSH2 0x2A3E JUMP JUMPDEST PUSH1 0xE0 DUP3 ADD MLOAD PUSH1 0x0 PUSH1 0x1 PUSH1 0x1 PUSH1 0xA0 SHL SUB DUP3 AND PUSH2 0x25E0 JUMPI PUSH1 0x1 PUSH1 0x1 PUSH1 0xA0 SHL SUB DUP4 AND PUSH1 0x0 SWAP1 DUP2 MSTORE PUSH1 0x20 DUP2 SWAP1 MSTORE PUSH1 0x40 SWAP1 KECCAK256 SLOAD DUP8 DUP2 GT PUSH2 0x25D9 JUMPI DUP1 DUP9 SUB PUSH2 0x25DC JUMP JUMPDEST PUSH1 0x0 JUMPDEST SWAP2 POP POP JUMPDEST PUSH1 0x20 DUP9 ADD MLOAD PUSH1 0x40 MLOAD PUSH32 0x19822F7C00000000000000000000000000000000000000000000000000000000 DUP2 MSTORE PUSH1 0x1 PUSH1 0x1 PUSH1 0xA0 SHL SUB DUP6 AND SWAP2 PUSH4 0x19822F7C SWAP2 DUP10 SWAP2 PUSH2 0x262F SWAP2 DUP15 SWAP2 SWAP1 DUP8 SWAP1 PUSH1 0x4 ADD PUSH2 0x3903 JUMP JUMPDEST PUSH1 0x20 PUSH1 0x40 MLOAD DUP1 DUP4 SUB DUP2 PUSH1 0x0 DUP9 DUP8 CALL SWAP4 POP POP POP POP DUP1 ISZERO PUSH2 0x266B JUMPI POP PUSH1 0x40 DUP1 MLOAD PUSH1 0x1F RETURNDATASIZE SWAP1 DUP2 ADD PUSH1 0x1F NOT AND DUP3 ADD SWAP1 SWAP3 MSTORE PUSH2 0x2668 SWAP2 DUP2 ADD SWAP1 PUSH2 0x3928 JUMP JUMPDEST PUSH1 0x1 JUMPDEST PUSH2 0x2696 JUMPI DUP10 PUSH2 0x267B PUSH2 0x800 PUSH2 0x1872 JUMP JUMPDEST PUSH1 0x40 MLOAD PUSH4 0x65C8FD4D PUSH1 0xE0 SHL DUP2 MSTORE PUSH1 0x4 ADD PUSH2 0x640 SWAP3 SWAP2 SWAP1 PUSH2 0x3941 JUMP JUMPDEST SWAP5 POP PUSH1 0x1 PUSH1 0x1 PUSH1 0xA0 SHL SUB DUP3 AND PUSH2 0x2720 JUMPI PUSH1 0x1 PUSH1 0x1 PUSH1 0xA0 SHL SUB DUP4 AND PUSH1 0x0 SWAP1 DUP2 MSTORE PUSH1 0x20 DUP2 SWAP1 MSTORE PUSH1 0x40 SWAP1 KECCAK256 DUP1 SLOAD DUP1 DUP10 GT ISZERO PUSH2 0x271A JUMPI DUP12 PUSH1 0x40 MLOAD PUSH4 0x1101335B PUSH1 0xE1 SHL DUP2 MSTORE PUSH1 0x4 ADD PUSH2 0x640 SWAP2 DUP2 MSTORE PUSH1 0x40 PUSH1 0x20 DUP3 ADD DUP2 SWAP1 MSTORE PUSH1 0x17 SWAP1 DUP3 ADD MSTORE PUSH32 0x41413231206469646E2774207061792070726566756E64000000000000000000 PUSH1 0x60 DUP3 ADD MSTORE PUSH1 0x80 ADD SWAP1 JUMP JUMPDEST DUP9 SWAP1 SUB SWAP1 SSTORE JUMPDEST POP POP POP POP SWAP6 SWAP5 POP POP POP POP POP JUMP JUMPDEST PUSH1 0x1 PUSH1 0x1 PUSH1 0xA0 SHL SUB DUP3 AND PUSH1 0x0 SWAP1 DUP2 MSTORE PUSH1 0x1 PUSH1 0x20 SWAP1 DUP2 MSTORE PUSH1 0x40 DUP1 DUP4 KECCAK256 DUP5 DUP3 SHR DUP1 DUP6 MSTORE SWAP3 MSTORE DUP3 KECCAK256 DUP1 SLOAD DUP5 SWAP2 PUSH8 0xFFFFFFFFFFFFFFFF DUP4 AND SWAP2 SWAP1 DUP6 PUSH2 0x276D DUP4 PUSH2 0x33F6 JUMP JUMPDEST SWAP1 SWAP2 SSTORE POP EQ SWAP6 SWAP5 POP POP POP POP POP JUMP JUMPDEST PUSH1 0x60 PUSH1 0x0 DUP1 GAS DUP6 MLOAD PUSH1 0xE0 DUP2 ADD MLOAD PUSH1 0x1 PUSH1 0x1 PUSH1 0xA0 SHL SUB DUP2 AND PUSH1 0x0 SWAP1 DUP2 MSTORE PUSH1 0x20 DUP2 SWAP1 MSTORE PUSH1 0x40 SWAP1 KECCAK256 DUP1 SLOAD SWAP4 SWAP5 POP SWAP2 SWAP3 SWAP1 SWAP2 SWAP1 DUP8 DUP2 LT ISZERO PUSH2 0x2804 JUMPI DUP11 PUSH1 0x40 MLOAD PUSH4 0x1101335B PUSH1 0xE1 SHL DUP2 MSTORE PUSH1 0x4 ADD PUSH2 0x640 SWAP2 DUP2 MSTORE PUSH1 0x40 PUSH1 0x20 DUP3 ADD DUP2 SWAP1 MSTORE PUSH1 0x1E SWAP1 DUP3 ADD MSTORE PUSH32 0x41413331207061796D6173746572206465706F73697420746F6F206C6F770000 PUSH1 0x60 DUP3 ADD MSTORE PUSH1 0x80 ADD SWAP1 JUMP JUMPDEST DUP8 DUP2 SUB DUP3 PUSH1 0x0 ADD DUP2 SWAP1 SSTORE POP PUSH1 0x0 DUP5 PUSH1 0x80 ADD MLOAD SWAP1 POP DUP4 PUSH1 0x1 PUSH1 0x1 PUSH1 0xA0 SHL SUB AND PUSH4 0x52B7512C DUP3 DUP14 DUP14 PUSH1 0x20 ADD MLOAD DUP14 PUSH1 0x40 MLOAD DUP6 PUSH4 0xFFFFFFFF AND PUSH1 0xE0 SHL DUP2 MSTORE PUSH1 0x4 ADD PUSH2 0x284D SWAP4 SWAP3 SWAP2 SWAP1 PUSH2 0x3903 JUMP JUMPDEST PUSH1 0x0 PUSH1 0x40 MLOAD DUP1 DUP4 SUB DUP2 PUSH1 0x0 DUP9 DUP8 CALL SWAP4 POP POP POP POP DUP1 ISZERO PUSH2 0x288E JUMPI POP PUSH1 0x40 MLOAD RETURNDATASIZE PUSH1 0x0 DUP3 RETURNDATACOPY PUSH1 0x1F RETURNDATASIZE SWAP1 DUP2 ADD PUSH1 0x1F NOT AND DUP3 ADD PUSH1 0x40 MSTORE PUSH2 0x288B SWAP2 SWAP1 DUP2 ADD SWAP1 PUSH2 0x398E JUMP JUMPDEST PUSH1 0x1 JUMPDEST PUSH2 0x28B9 JUMPI DUP12 PUSH2 0x289E PUSH2 0x800 PUSH2 0x1872 JUMP JUMPDEST PUSH1 0x40 MLOAD PUSH4 0x65C8FD4D PUSH1 0xE0 SHL DUP2 MSTORE PUSH1 0x4 ADD PUSH2 0x640 SWAP3 SWAP2 SWAP1 PUSH2 0x3A0F JUMP JUMPDEST SWAP1 SWAP9 POP SWAP7 POP DUP1 GAS DUP8 SUB GT ISZERO PUSH2 0x2940 JUMPI DUP12 PUSH1 0x40 MLOAD PUSH4 0x1101335B PUSH1 0xE1 SHL DUP2 MSTORE PUSH1 0x4 ADD PUSH2 0x640 SWAP2 DUP2 MSTORE PUSH1 0x40 PUSH1 0x20 DUP3 ADD DUP2 SWAP1 MSTORE PUSH1 0x27 SWAP1 DUP3 ADD MSTORE PUSH32 0x41413336206F766572207061796D6173746572566572696669636174696F6E47 PUSH1 0x60 DUP3 ADD MSTORE PUSH32 0x61734C696D697400000000000000000000000000000000000000000000000000 PUSH1 0x80 DUP3 ADD MSTORE PUSH1 0xA0 ADD SWAP1 JUMP JUMPDEST POP POP POP POP POP POP SWAP5 POP SWAP5 SWAP3 POP POP POP JUMP JUMPDEST PUSH1 0x0 DUP1 DUP3 PUSH1 0x0 SUB PUSH2 0x2965 JUMPI POP PUSH1 0x0 SWAP3 DUP4 SWAP3 POP SWAP1 POP JUMP JUMPDEST PUSH1 0x0 PUSH2 0x2970 DUP5 PUSH2 0x2D00 JUMP JUMPDEST SWAP1 POP DUP1 PUSH1 0x40 ADD MLOAD PUSH6 0xFFFFFFFFFFFF AND TIMESTAMP GT DUP1 PUSH2 0x2997 JUMPI POP DUP1 PUSH1 0x20 ADD MLOAD PUSH6 0xFFFFFFFFFFFF AND TIMESTAMP LT JUMPDEST SWAP1 MLOAD SWAP5 SWAP1 SWAP4 POP SWAP2 POP POP JUMP JUMPDEST PUSH1 0x0 DUP2 DUP4 LT PUSH2 0x29B1 JUMPI DUP2 PUSH2 0x29B3 JUMP JUMPDEST DUP3 JUMPDEST SWAP4 SWAP3 POP POP POP JUMP JUMPDEST PUSH1 0x0 PUSH1 0x40 MLOAD DUP3 DUP1 DUP6 DUP4 CALLDATACOPY SWAP1 KECCAK256 SWAP4 SWAP3 POP POP POP JUMP JUMPDEST PUSH1 0x0 DUP1 DUP1 PUSH2 0x29DE PUSH1 0x14 DUP3 DUP7 DUP9 PUSH2 0x3A5C JUMP JUMPDEST PUSH2 0x29E7 SWAP2 PUSH2 0x3A86 JUMP JUMPDEST PUSH1 0x60 SHR PUSH2 0x29F8 PUSH1 0x24 PUSH1 0x14 DUP8 DUP10 PUSH2 0x3A5C JUMP JUMPDEST PUSH2 0x2A01 SWAP2 PUSH2 0x3ABB JUMP JUMPDEST PUSH1 0x80 SHR PUSH2 0x2A12 PUSH1 0x34 PUSH1 0x24 DUP9 DUP11 PUSH2 0x3A5C JUMP JUMPDEST PUSH2 0x2A1B SWAP2 PUSH2 0x3ABB JUMP JUMPDEST SWAP2 SWAP5 POP PUSH16 0xFFFFFFFFFFFFFFFFFFFFFFFFFFFFFFFF AND SWAP3 POP PUSH1 0x80 SHR SWAP1 POP SWAP3 POP SWAP3 POP SWAP3 JUMP JUMPDEST DUP1 ISZERO PUSH2 0xD01 JUMPI DUP3 MLOAD MLOAD PUSH1 0x1 PUSH1 0x1 PUSH1 0xA0 SHL SUB DUP2 AND EXTCODESIZE ISZERO PUSH2 0x2AA9 JUMPI DUP5 PUSH1 0x40 MLOAD PUSH4 0x1101335B PUSH1 0xE1 SHL DUP2 MSTORE PUSH1 0x4 ADD PUSH2 0x640 SWAP2 DUP2 MSTORE PUSH1 0x40 PUSH1 0x20 DUP3 ADD DUP2 SWAP1 MSTORE PUSH1 0x1F SWAP1 DUP3 ADD MSTORE PUSH32 0x414131302073656E64657220616C726561647920636F6E737472756374656400 PUSH1 0x60 DUP3 ADD MSTORE PUSH1 0x80 ADD SWAP1 JUMP JUMPDEST PUSH1 0x0 PUSH32 0x0 PUSH1 0x1 PUSH1 0x1 PUSH1 0xA0 SHL SUB AND PUSH4 0x570E1A36 DUP7 PUSH1 0x0 ADD MLOAD PUSH1 0x40 ADD MLOAD DUP7 DUP7 PUSH1 0x40 MLOAD DUP5 PUSH4 0xFFFFFFFF AND PUSH1 0xE0 SHL DUP2 MSTORE PUSH1 0x4 ADD PUSH2 0x2B02 SWAP3 SWAP2 SWAP1 PUSH2 0x34AD JUMP JUMPDEST PUSH1 0x20 PUSH1 0x40 MLOAD DUP1 DUP4 SUB DUP2 PUSH1 0x0 DUP9 DUP8 CALL ISZERO DUP1 ISZERO PUSH2 0x2B21 JUMPI RETURNDATASIZE PUSH1 0x0 DUP1 RETURNDATACOPY RETURNDATASIZE PUSH1 0x0 REVERT JUMPDEST POP POP POP POP POP PUSH1 0x40 MLOAD RETURNDATASIZE PUSH1 0x1F NOT PUSH1 0x1F DUP3 ADD AND DUP3 ADD DUP1 PUSH1 0x40 MSTORE POP DUP2 ADD SWAP1 PUSH2 0x2B46 SWAP2 SWAP1 PUSH2 0x34C1 JUMP JUMPDEST SWAP1 POP PUSH1 0x1 PUSH1 0x1 PUSH1 0xA0 SHL SUB DUP2 AND PUSH2 0x2BA8 JUMPI DUP6 PUSH1 0x40 MLOAD PUSH4 0x1101335B PUSH1 0xE1 SHL DUP2 MSTORE PUSH1 0x4 ADD PUSH2 0x640 SWAP2 DUP2 MSTORE PUSH1 0x40 PUSH1 0x20 DUP3 ADD DUP2 SWAP1 MSTORE PUSH1 0x1B SWAP1 DUP3 ADD MSTORE PUSH32 0x4141313320696E6974436F6465206661696C6564206F72204F4F470000000000 PUSH1 0x60 DUP3 ADD MSTORE PUSH1 0x80 ADD SWAP1 JUMP JUMPDEST DUP2 PUSH1 0x1 PUSH1 0x1 PUSH1 0xA0 SHL SUB AND DUP2 PUSH1 0x1 PUSH1 0x1 PUSH1 0xA0 SHL SUB AND EQ PUSH2 0x2C12 JUMPI DUP6 PUSH1 0x40 MLOAD PUSH4 0x1101335B PUSH1 0xE1 SHL DUP2 MSTORE PUSH1 0x4 ADD PUSH2 0x640 SWAP2 DUP2 MSTORE PUSH1 0x40 PUSH1 0x20 DUP1 DUP4 ADD DUP3 SWAP1 MSTORE SWAP1 DUP3 ADD MSTORE PUSH32 0x4141313420696E6974436F6465206D7573742072657475726E2073656E646572 PUSH1 0x60 DUP3 ADD MSTORE PUSH1 0x80 ADD SWAP1 JUMP JUMPDEST DUP1 PUSH1 0x1 PUSH1 0x1 PUSH1 0xA0 SHL SUB AND EXTCODESIZE PUSH1 0x0 SUB PUSH2 0x2C75 JUMPI DUP6 PUSH1 0x40 MLOAD PUSH4 0x1101335B PUSH1 0xE1 SHL DUP2 MSTORE PUSH1 0x4 ADD PUSH2 0x640 SWAP2 DUP2 MSTORE PUSH1 0x40 PUSH1 0x20 DUP1 DUP4 ADD DUP3 SWAP1 MSTORE SWAP1 DUP3 ADD MSTORE PUSH32 0x4141313520696E6974436F6465206D757374206372656174652073656E646572 PUSH1 0x60 DUP3 ADD MSTORE PUSH1 0x80 ADD SWAP1 JUMP JUMPDEST PUSH1 0x0 PUSH2 0x2C84 PUSH1 0x14 DUP3 DUP7 DUP9 PUSH2 0x3A5C JUMP JUMPDEST PUSH2 0x2C8D SWAP2 PUSH2 0x3A86 JUMP JUMPDEST PUSH1 0x60 SHR SWAP1 POP DUP3 PUSH1 0x1 PUSH1 0x1 PUSH1 0xA0 SHL SUB AND DUP7 PUSH1 0x20 ADD MLOAD PUSH32 0xD51A9C61267AA6196961883ECF5FF2DA6619C37DAC0FA92122513FB32C032D2D DUP4 DUP10 PUSH1 0x0 ADD MLOAD PUSH1 0xE0 ADD MLOAD PUSH1 0x40 MLOAD PUSH2 0x2CEF SWAP3 SWAP2 SWAP1 PUSH1 0x1 PUSH1 0x1 PUSH1 0xA0 SHL SUB SWAP3 DUP4 AND DUP2 MSTORE SWAP2 AND PUSH1 0x20 DUP3 ADD MSTORE PUSH1 0x40 ADD SWAP1 JUMP JUMPDEST PUSH1 0x40 MLOAD DUP1 SWAP2 SUB SWAP1 LOG3 POP POP POP POP POP POP POP JUMP JUMPDEST PUSH1 0x40 DUP1 MLOAD PUSH1 0x60 DUP2 ADD DUP3 MSTORE PUSH1 0x0 DUP1 DUP3 MSTORE PUSH1 0x20 DUP3 ADD DUP2 SWAP1 MSTORE SWAP2 DUP2 ADD SWAP2 SWAP1 SWAP2 MSTORE DUP2 PUSH1 0xA0 DUP2 SWAP1 SHR PUSH6 0xFFFFFFFFFFFF DUP2 AND PUSH1 0x0 SUB PUSH2 0x2D3C JUMPI POP PUSH6 0xFFFFFFFFFFFF JUMPDEST PUSH1 0x40 DUP1 MLOAD PUSH1 0x60 DUP2 ADD DUP3 MSTORE PUSH1 0x1 PUSH1 0x1 PUSH1 0xA0 SHL SUB SWAP1 SWAP4 AND DUP4 MSTORE PUSH1 0xD0 SWAP5 SWAP1 SWAP5 SHR PUSH1 0x20 DUP4 ADD MSTORE PUSH6 0xFFFFFFFFFFFF AND SWAP3 DUP2 ADD SWAP3 SWAP1 SWAP3 MSTORE POP SWAP1 JUMP JUMPDEST PUSH1 0x40 MLOAD DUP1 PUSH1 0xA0 ADD PUSH1 0x40 MSTORE DUP1 PUSH2 0x2DE4 PUSH1 0x40 MLOAD DUP1 PUSH2 0x140 ADD PUSH1 0x40 MSTORE DUP1 PUSH1 0x0 PUSH1 0x1 PUSH1 0x1 PUSH1 0xA0 SHL SUB AND DUP2 MSTORE PUSH1 0x20 ADD PUSH1 0x0 DUP2 MSTORE PUSH1 0x20 ADD PUSH1 0x0 DUP2 MSTORE PUSH1 0x20 ADD PUSH1 0x0 DUP2 MSTORE PUSH1 0x20 ADD PUSH1 0x0 DUP2 MSTORE PUSH1 0x20 ADD PUSH1 0x0 DUP2 MSTORE PUSH1 0x20 ADD PUSH1 0x0 DUP2 MSTORE PUSH1 0x20 ADD PUSH1 0x0 PUSH1 0x1 PUSH1 0x1 PUSH1 0xA0 SHL SUB AND DUP2 MSTORE PUSH1 0x20 ADD PUSH1 0x0 DUP2 MSTORE PUSH1 0x20 ADD PUSH1 0x0 DUP2 MSTORE POP SWAP1 JUMP JUMPDEST DUP2 MSTORE PUSH1 0x20 ADD PUSH1 0x0 DUP1 NOT AND DUP2 MSTORE PUSH1 0x20 ADD PUSH1 0x0 DUP2 MSTORE PUSH1 0x20 ADD PUSH1 0x0 DUP2 MSTORE PUSH1 0x20 ADD PUSH1 0x0 DUP2 MSTORE POP SWAP1 JUMP JUMPDEST PUSH4 0x4E487B71 PUSH1 0xE0 SHL PUSH1 0x0 MSTORE PUSH1 0x41 PUSH1 0x4 MSTORE PUSH1 0x24 PUSH1 0x0 REVERT JUMPDEST PUSH1 0x40 MLOAD PUSH1 0xA0 DUP2 ADD PUSH8 0xFFFFFFFFFFFFFFFF DUP2 GT DUP3 DUP3 LT OR ISZERO PUSH2 0x2E42 JUMPI PUSH2 0x2E42 PUSH2 0x2E09 JUMP JUMPDEST PUSH1 0x40 MSTORE SWAP1 JUMP JUMPDEST PUSH1 0x40 MLOAD PUSH2 0x140 DUP2 ADD PUSH8 0xFFFFFFFFFFFFFFFF DUP2 GT DUP3 DUP3 LT OR ISZERO PUSH2 0x2E42 JUMPI PUSH2 0x2E42 PUSH2 0x2E09 JUMP JUMPDEST PUSH1 0x40 MLOAD PUSH1 0x1F DUP3 ADD PUSH1 0x1F NOT AND DUP2 ADD PUSH8 0xFFFFFFFFFFFFFFFF DUP2 GT DUP3 DUP3 LT OR ISZERO PUSH2 0x2E95 JUMPI PUSH2 0x2E95 PUSH2 0x2E09 JUMP JUMPDEST PUSH1 0x40 MSTORE SWAP2 SWAP1 POP JUMP JUMPDEST PUSH1 0x0 PUSH8 0xFFFFFFFFFFFFFFFF DUP3 GT ISZERO PUSH2 0x2EB7 JUMPI PUSH2 0x2EB7 PUSH2 0x2E09 JUMP JUMPDEST POP PUSH1 0x1F ADD PUSH1 0x1F NOT AND PUSH1 0x20 ADD SWAP1 JUMP JUMPDEST PUSH1 0x1 PUSH1 0x1 PUSH1 0xA0 SHL SUB DUP2 AND DUP2 EQ PUSH2 0x2EDA JUMPI PUSH1 0x0 DUP1 REVERT JUMPDEST POP JUMP JUMPDEST DUP1 CALLDATALOAD PUSH2 0x2EE8 DUP2 PUSH2 0x2EC5 JUMP JUMPDEST SWAP2 SWAP1 POP JUMP JUMPDEST PUSH1 0x0 DUP2 DUP4 SUB PUSH2 0x1C0 DUP2 SLT ISZERO PUSH2 0x2F01 JUMPI PUSH1 0x0 DUP1 REVERT JUMPDEST PUSH2 0x2F09 PUSH2 0x2E1F JUMP JUMPDEST SWAP2 POP PUSH2 0x140 DUP1 DUP3 SLT ISZERO PUSH2 0x2F1B JUMPI PUSH1 0x0 DUP1 REVERT JUMPDEST PUSH2 0x2F23 PUSH2 0x2E48 JUMP JUMPDEST SWAP2 POP PUSH2 0x2F2E DUP5 PUSH2 0x2EDD JUMP JUMPDEST DUP3 MSTORE PUSH1 0x20 DUP5 ADD CALLDATALOAD PUSH1 0x20 DUP4 ADD MSTORE PUSH1 0x40 DUP5 ADD CALLDATALOAD PUSH1 0x40 DUP4 ADD MSTORE PUSH1 0x60 DUP5 ADD CALLDATALOAD PUSH1 0x60 DUP4 ADD MSTORE PUSH1 0x80 DUP5 ADD CALLDATALOAD PUSH1 0x80 DUP4 ADD MSTORE PUSH1 0xA0 DUP5 ADD CALLDATALOAD PUSH1 0xA0 DUP4 ADD MSTORE PUSH1 0xC0 DUP5 ADD CALLDATALOAD PUSH1 0xC0 DUP4 ADD MSTORE PUSH2 0x2F78 PUSH1 0xE0 DUP6 ADD PUSH2 0x2EDD JUMP JUMPDEST PUSH1 0xE0 DUP4 ADD MSTORE PUSH2 0x100 DUP5 DUP2 ADD CALLDATALOAD SWAP1 DUP4 ADD MSTORE PUSH2 0x120 DUP1 DUP6 ADD CALLDATALOAD SWAP1 DUP4 ADD MSTORE SWAP1 DUP3 MSTORE DUP3 ADD CALLDATALOAD PUSH1 0x20 DUP3 ADD MSTORE PUSH2 0x160 DUP3 ADD CALLDATALOAD PUSH1 0x40 DUP3 ADD MSTORE PUSH2 0x180 DUP3 ADD CALLDATALOAD PUSH1 0x60 DUP3 ADD MSTORE PUSH2 0x1A0 SWAP1 SWAP2 ADD CALLDATALOAD PUSH1 0x80 DUP3 ADD MSTORE SWAP2 SWAP1 POP JUMP JUMPDEST PUSH1 0x0 DUP1 DUP4 PUSH1 0x1F DUP5 ADD SLT PUSH2 0x2FD7 JUMPI PUSH1 0x0 DUP1 REVERT JUMPDEST POP DUP2 CALLDATALOAD PUSH8 0xFFFFFFFFFFFFFFFF DUP2 GT ISZERO PUSH2 0x2FEF JUMPI PUSH1 0x0 DUP1 REVERT JUMPDEST PUSH1 0x20 DUP4 ADD SWAP2 POP DUP4 PUSH1 0x20 DUP3 DUP6 ADD ADD GT ISZERO PUSH2 0x3007 JUMPI PUSH1 0x0 DUP1 REVERT JUMPDEST SWAP3 POP SWAP3 SWAP1 POP JUMP JUMPDEST PUSH1 0x0 DUP1 PUSH1 0x0 DUP1 PUSH2 0x200 DUP6 DUP8 SUB SLT ISZERO PUSH2 0x3025 JUMPI PUSH1 0x0 DUP1 REVERT JUMPDEST DUP5 CALLDATALOAD PUSH8 0xFFFFFFFFFFFFFFFF DUP1 DUP3 GT ISZERO PUSH2 0x303D JUMPI PUSH1 0x0 DUP1 REVERT JUMPDEST DUP2 DUP8 ADD SWAP2 POP DUP8 PUSH1 0x1F DUP4 ADD SLT PUSH2 0x3051 JUMPI PUSH1 0x0 DUP1 REVERT JUMPDEST DUP2 CALLDATALOAD PUSH2 0x3064 PUSH2 0x305F DUP3 PUSH2 0x2E9D JUMP JUMPDEST PUSH2 0x2E6C JUMP JUMPDEST DUP2 DUP2 MSTORE DUP10 PUSH1 0x20 DUP4 DUP7 ADD ADD GT ISZERO PUSH2 0x3079 JUMPI PUSH1 0x0 DUP1 REVERT JUMPDEST DUP2 PUSH1 0x20 DUP6 ADD PUSH1 0x20 DUP4 ADD CALLDATACOPY PUSH1 0x0 PUSH1 0x20 DUP4 DUP4 ADD ADD MSTORE DUP1 SWAP8 POP POP POP PUSH2 0x309E DUP9 PUSH1 0x20 DUP10 ADD PUSH2 0x2EED JUMP JUMPDEST SWAP5 POP PUSH2 0x1E0 DUP8 ADD CALLDATALOAD SWAP2 POP DUP1 DUP3 GT ISZERO PUSH2 0x30B5 JUMPI PUSH1 0x0 DUP1 REVERT JUMPDEST POP PUSH2 0x30C2 DUP8 DUP3 DUP9 ADD PUSH2 0x2FC5 JUMP JUMPDEST SWAP6 SWAP9 SWAP5 SWAP8 POP SWAP6 POP POP POP POP JUMP JUMPDEST PUSH1 0x0 PUSH1 0x20 DUP3 DUP5 SUB SLT ISZERO PUSH2 0x30E0 JUMPI PUSH1 0x0 DUP1 REVERT JUMPDEST DUP2 CALLDATALOAD PUSH1 0x1 PUSH1 0x1 PUSH1 0xE0 SHL SUB NOT DUP2 AND DUP2 EQ PUSH2 0x29B3 JUMPI PUSH1 0x0 DUP1 REVERT JUMPDEST PUSH1 0x0 PUSH1 0x20 DUP3 DUP5 SUB SLT ISZERO PUSH2 0x310A JUMPI PUSH1 0x0 DUP1 REVERT JUMPDEST DUP2 CALLDATALOAD PUSH4 0xFFFFFFFF DUP2 AND DUP2 EQ PUSH2 0x29B3 JUMPI PUSH1 0x0 DUP1 REVERT JUMPDEST DUP1 CALLDATALOAD PUSH24 0xFFFFFFFFFFFFFFFFFFFFFFFFFFFFFFFFFFFFFFFFFFFFFFFF DUP2 AND DUP2 EQ PUSH2 0x2EE8 JUMPI PUSH1 0x0 DUP1 REVERT JUMPDEST PUSH1 0x0 PUSH1 0x20 DUP3 DUP5 SUB SLT ISZERO PUSH2 0x3158 JUMPI PUSH1 0x0 DUP1 REVERT JUMPDEST PUSH2 0x29B3 DUP3 PUSH2 0x311E JUMP JUMPDEST PUSH1 0x0 DUP1 PUSH1 0x40 DUP4 DUP6 SUB SLT ISZERO PUSH2 0x3174 JUMPI PUSH1 0x0 DUP1 REVERT JUMPDEST DUP3 CALLDATALOAD PUSH2 0x317F DUP2 PUSH2 0x2EC5 JUMP JUMPDEST SWAP2 POP PUSH2 0x318D PUSH1 0x20 DUP5 ADD PUSH2 0x311E JUMP JUMPDEST SWAP1 POP SWAP3 POP SWAP3 SWAP1 POP JUMP JUMPDEST PUSH1 0x0 DUP1 PUSH1 0x40 DUP4 DUP6 SUB SLT ISZERO PUSH2 0x31A9 JUMPI PUSH1 0x0 DUP1 REVERT JUMPDEST DUP3 CALLDATALOAD PUSH2 0x31B4 DUP2 PUSH2 0x2EC5 JUMP JUMPDEST SWAP5 PUSH1 0x20 SWAP4 SWAP1 SWAP4 ADD CALLDATALOAD SWAP4 POP POP POP JUMP JUMPDEST PUSH1 0x0 PUSH1 0x20 DUP3 DUP5 SUB SLT ISZERO PUSH2 0x31D4 JUMPI PUSH1 0x0 DUP1 REVERT JUMPDEST DUP2 CALLDATALOAD PUSH8 0xFFFFFFFFFFFFFFFF DUP2 GT ISZERO PUSH2 0x31EB JUMPI PUSH1 0x0 DUP1 REVERT JUMPDEST DUP3 ADD PUSH2 0x120 DUP2 DUP6 SUB SLT ISZERO PUSH2 0x29B3 JUMPI PUSH1 0x0 DUP1 REVERT JUMPDEST PUSH1 0x0 PUSH1 0x20 DUP3 DUP5 SUB SLT ISZERO PUSH2 0x3210 JUMPI PUSH1 0x0 DUP1 REVERT JUMPDEST DUP2 CALLDATALOAD PUSH2 0x29B3 DUP2 PUSH2 0x2EC5 JUMP JUMPDEST PUSH1 0x0 DUP1 DUP4 PUSH1 0x1F DUP5 ADD SLT PUSH2 0x322D JUMPI PUSH1 0x0 DUP1 REVERT JUMPDEST POP DUP2 CALLDATALOAD PUSH8 0xFFFFFFFFFFFFFFFF DUP2 GT ISZERO PUSH2 0x3245 JUMPI PUSH1 0x0 DUP1 REVERT JUMPDEST PUSH1 0x20 DUP4 ADD SWAP2 POP DUP4 PUSH1 0x20 DUP3 PUSH1 0x5 SHL DUP6 ADD ADD GT ISZERO PUSH2 0x3007 JUMPI PUSH1 0x0 DUP1 REVERT JUMPDEST PUSH1 0x0 DUP1 PUSH1 0x0 PUSH1 0x40 DUP5 DUP7 SUB SLT ISZERO PUSH2 0x3275 JUMPI PUSH1 0x0 DUP1 REVERT JUMPDEST DUP4 CALLDATALOAD PUSH8 0xFFFFFFFFFFFFFFFF DUP2 GT ISZERO PUSH2 0x328C JUMPI PUSH1 0x0 DUP1 REVERT JUMPDEST PUSH2 0x3298 DUP7 DUP3 DUP8 ADD PUSH2 0x321B JUMP JUMPDEST SWAP1 SWAP5 POP SWAP3 POP POP PUSH1 0x20 DUP5 ADD CALLDATALOAD PUSH2 0x32AC DUP2 PUSH2 0x2EC5 JUMP JUMPDEST DUP1 SWAP2 POP POP SWAP3 POP SWAP3 POP SWAP3 JUMP JUMPDEST PUSH1 0x0 DUP1 PUSH1 0x0 PUSH1 0x40 DUP5 DUP7 SUB SLT ISZERO PUSH2 0x32CC JUMPI PUSH1 0x0 DUP1 REVERT JUMPDEST DUP4 CALLDATALOAD PUSH2 0x32D7 DUP2 PUSH2 0x2EC5 JUMP JUMPDEST SWAP3 POP PUSH1 0x20 DUP5 ADD CALLDATALOAD PUSH8 0xFFFFFFFFFFFFFFFF DUP2 GT ISZERO PUSH2 0x32F3 JUMPI PUSH1 0x0 DUP1 REVERT JUMPDEST PUSH2 0x32FF DUP7 DUP3 DUP8 ADD PUSH2 0x2FC5 JUMP JUMPDEST SWAP5 SWAP8 SWAP1 SWAP7 POP SWAP4 SWAP5 POP POP POP POP JUMP JUMPDEST PUSH1 0x0 DUP1 PUSH1 0x20 DUP4 DUP6 SUB SLT ISZERO PUSH2 0x331F JUMPI PUSH1 0x0 DUP1 REVERT JUMPDEST DUP3 CALLDATALOAD PUSH8 0xFFFFFFFFFFFFFFFF DUP2 GT ISZERO PUSH2 0x3336 JUMPI PUSH1 0x0 DUP1 REVERT JUMPDEST PUSH2 0x3342 DUP6 DUP3 DUP7 ADD PUSH2 0x2FC5 JUMP JUMPDEST SWAP1 SWAP7 SWAP1 SWAP6 POP SWAP4 POP POP POP POP JUMP JUMPDEST PUSH4 0x4E487B71 PUSH1 0xE0 SHL PUSH1 0x0 MSTORE PUSH1 0x12 PUSH1 0x4 MSTORE PUSH1 0x24 PUSH1 0x0 REVERT JUMPDEST PUSH1 0x0 JUMPDEST DUP4 DUP2 LT ISZERO PUSH2 0x337F JUMPI DUP2 DUP2 ADD MLOAD DUP4 DUP3 ADD MSTORE PUSH1 0x20 ADD PUSH2 0x3367 JUMP JUMPDEST POP POP PUSH1 0x0 SWAP2 ADD MSTORE JUMP JUMPDEST PUSH1 0x0 DUP2 MLOAD DUP1 DUP5 MSTORE PUSH2 0x33A0 DUP2 PUSH1 0x20 DUP7 ADD PUSH1 0x20 DUP7 ADD PUSH2 0x3364 JUMP JUMPDEST PUSH1 0x1F ADD PUSH1 0x1F NOT AND SWAP3 SWAP1 SWAP3 ADD PUSH1 0x20 ADD SWAP3 SWAP2 POP POP JUMP JUMPDEST DUP3 DUP2 MSTORE PUSH1 0x40 PUSH1 0x20 DUP3 ADD MSTORE PUSH1 0x0 PUSH2 0x22DC PUSH1 0x40 DUP4 ADD DUP5 PUSH2 0x3388 JUMP JUMPDEST PUSH4 0x4E487B71 PUSH1 0xE0 SHL PUSH1 0x0 MSTORE PUSH1 0x11 PUSH1 0x4 MSTORE PUSH1 0x24 PUSH1 0x0 REVERT JUMPDEST DUP1 DUP3 ADD DUP1 DUP3 GT ISZERO PUSH2 0x877 JUMPI PUSH2 0x877 PUSH2 0x33CD JUMP JUMPDEST PUSH1 0x0 PUSH1 0x1 DUP3 ADD PUSH2 0x3408 JUMPI PUSH2 0x3408 PUSH2 0x33CD JUMP JUMPDEST POP PUSH1 0x1 ADD SWAP1 JUMP JUMPDEST DUP2 DUP2 SUB DUP2 DUP2 GT ISZERO PUSH2 0x877 JUMPI PUSH2 0x877 PUSH2 0x33CD JUMP JUMPDEST PUSH4 0x4E487B71 PUSH1 0xE0 SHL PUSH1 0x0 MSTORE PUSH1 0x32 PUSH1 0x4 MSTORE PUSH1 0x24 PUSH1 0x0 REVERT JUMPDEST PUSH1 0x0 DUP3 CALLDATALOAD PUSH2 0x11E NOT DUP4 CALLDATASIZE SUB ADD DUP2 SLT PUSH2 0x344F JUMPI PUSH1 0x0 DUP1 REVERT JUMPDEST SWAP2 SWAP1 SWAP2 ADD SWAP3 SWAP2 POP POP JUMP JUMPDEST DUP2 DUP4 DUP3 CALLDATACOPY PUSH1 0x0 SWAP2 ADD SWAP1 DUP2 MSTORE SWAP2 SWAP1 POP JUMP JUMPDEST DUP3 ISZERO ISZERO DUP2 MSTORE PUSH1 0x40 PUSH1 0x20 DUP3 ADD MSTORE PUSH1 0x0 PUSH2 0x22DC PUSH1 0x40 DUP4 ADD DUP5 PUSH2 0x3388 JUMP JUMPDEST DUP2 DUP4 MSTORE DUP2 DUP2 PUSH1 0x20 DUP6 ADD CALLDATACOPY POP PUSH1 0x0 DUP3 DUP3 ADD PUSH1 0x20 SWAP1 DUP2 ADD SWAP2 SWAP1 SWAP2 MSTORE PUSH1 0x1F SWAP1 SWAP2 ADD PUSH1 0x1F NOT AND SWAP1 SWAP2 ADD ADD SWAP1 JUMP JUMPDEST PUSH1 0x20 DUP2 MSTORE PUSH1 0x0 PUSH2 0x22DC PUSH1 0x20 DUP4 ADD DUP5 DUP7 PUSH2 0x3484 JUMP JUMPDEST PUSH1 0x0 PUSH1 0x20 DUP3 DUP5 SUB SLT ISZERO PUSH2 0x34D3 JUMPI PUSH1 0x0 DUP1 REVERT JUMPDEST DUP2 MLOAD PUSH2 0x29B3 DUP2 PUSH2 0x2EC5 JUMP JUMPDEST PUSH6 0xFFFFFFFFFFFF DUP2 DUP2 AND DUP4 DUP3 AND ADD SWAP1 DUP1 DUP3 GT ISZERO PUSH2 0x34FD JUMPI PUSH2 0x34FD PUSH2 0x33CD JUMP JUMPDEST POP SWAP3 SWAP2 POP POP JUMP JUMPDEST PUSH1 0x0 DUP3 CALLDATALOAD PUSH1 0x5E NOT DUP4 CALLDATASIZE SUB ADD DUP2 SLT PUSH2 0x344F JUMPI PUSH1 0x0 DUP1 REVERT JUMPDEST PUSH1 0x0 DUP1 DUP4 CALLDATALOAD PUSH1 0x1E NOT DUP5 CALLDATASIZE SUB ADD DUP2 SLT PUSH2 0x3531 JUMPI PUSH1 0x0 DUP1 REVERT JUMPDEST DUP4 ADD DUP1 CALLDATALOAD SWAP2 POP PUSH8 0xFFFFFFFFFFFFFFFF DUP3 GT ISZERO PUSH2 0x354C JUMPI PUSH1 0x0 DUP1 REVERT JUMPDEST PUSH1 0x20 ADD SWAP2 POP PUSH1 0x5 DUP2 SWAP1 SHL CALLDATASIZE SUB DUP3 SGT ISZERO PUSH2 0x3007 JUMPI PUSH1 0x0 DUP1 REVERT JUMPDEST PUSH1 0x0 DUP1 DUP4 CALLDATALOAD PUSH1 0x1E NOT DUP5 CALLDATASIZE SUB ADD DUP2 SLT PUSH2 0x357B JUMPI PUSH1 0x0 DUP1 REVERT JUMPDEST DUP4 ADD DUP1 CALLDATALOAD SWAP2 POP PUSH8 0xFFFFFFFFFFFFFFFF DUP3 GT ISZERO PUSH2 0x3596 JUMPI PUSH1 0x0 DUP1 REVERT JUMPDEST PUSH1 0x20 ADD SWAP2 POP CALLDATASIZE DUP2 SWAP1 SUB DUP3 SGT ISZERO PUSH2 0x3007 JUMPI PUSH1 0x0 DUP1 REVERT JUMPDEST PUSH1 0x0 DUP1 DUP4 CALLDATALOAD PUSH1 0x1E NOT DUP5 CALLDATASIZE SUB ADD DUP2 SLT PUSH2 0x35C2 JUMPI PUSH1 0x0 DUP1 REVERT JUMPDEST DUP4 ADD PUSH1 0x20 DUP2 ADD SWAP3 POP CALLDATALOAD SWAP1 POP PUSH8 0xFFFFFFFFFFFFFFFF DUP2 GT ISZERO PUSH2 0x35E2 JUMPI PUSH1 0x0 DUP1 REVERT JUMPDEST DUP1 CALLDATASIZE SUB DUP3 SGT ISZERO PUSH2 0x3007 JUMPI PUSH1 0x0 DUP1 REVERT JUMPDEST PUSH1 0x0 PUSH2 0x120 PUSH2 0x3610 DUP5 PUSH2 0x3603 DUP6 PUSH2 0x2EDD JUMP JUMPDEST PUSH1 0x1 PUSH1 0x1 PUSH1 0xA0 SHL SUB AND SWAP1 MSTORE JUMP JUMPDEST PUSH1 0x20 DUP4 ADD CALLDATALOAD PUSH1 0x20 DUP6 ADD MSTORE PUSH2 0x3627 PUSH1 0x40 DUP5 ADD DUP5 PUSH2 0x35AB JUMP JUMPDEST DUP3 PUSH1 0x40 DUP8 ADD MSTORE PUSH2 0x363A DUP4 DUP8 ADD DUP3 DUP5 PUSH2 0x3484 JUMP JUMPDEST SWAP3 POP POP POP PUSH2 0x364B PUSH1 0x60 DUP5 ADD DUP5 PUSH2 0x35AB JUMP JUMPDEST DUP6 DUP4 SUB PUSH1 0x60 DUP8 ADD MSTORE PUSH2 0x365E DUP4 DUP3 DUP5 PUSH2 0x3484 JUMP JUMPDEST SWAP3 POP POP POP PUSH1 0x80 DUP4 ADD CALLDATALOAD PUSH1 0x80 DUP6 ADD MSTORE PUSH1 0xA0 DUP4 ADD CALLDATALOAD PUSH1 0xA0 DUP6 ADD MSTORE PUSH1 0xC0 DUP4 ADD CALLDATALOAD PUSH1 0xC0 DUP6 ADD MSTORE PUSH2 0x368D PUSH1 0xE0 DUP5 ADD DUP5 PUSH2 0x35AB JUMP JUMPDEST DUP6 DUP4 SUB PUSH1 0xE0 DUP8 ADD MSTORE PUSH2 0x36A0 DUP4 DUP3 DUP5 PUSH2 0x3484 JUMP JUMPDEST SWAP3 POP POP POP PUSH2 0x100 PUSH2 0x36B3 DUP2 DUP6 ADD DUP6 PUSH2 0x35AB JUMP JUMPDEST DUP7 DUP5 SUB DUP4 DUP9 ADD MSTORE PUSH2 0x36C5 DUP5 DUP3 DUP5 PUSH2 0x3484 JUMP JUMPDEST SWAP8 SWAP7 POP POP POP POP POP POP POP JUMP JUMPDEST PUSH1 0x40 DUP1 DUP3 MSTORE DUP2 ADD DUP5 SWAP1 MSTORE PUSH1 0x0 PUSH1 0x60 PUSH1 0x5 DUP7 SWAP1 SHL DUP4 ADD DUP2 ADD SWAP1 DUP4 ADD DUP8 DUP4 DUP1 JUMPDEST DUP10 DUP2 LT ISZERO PUSH2 0x3736 JUMPI DUP7 DUP6 SUB PUSH1 0x5F NOT ADD DUP5 MSTORE DUP3 CALLDATALOAD CALLDATASIZE DUP13 SWAP1 SUB PUSH2 0x11E NOT ADD DUP2 SLT PUSH2 0x3714 JUMPI DUP3 DUP4 REVERT JUMPDEST PUSH2 0x3720 DUP7 DUP14 DUP4 ADD PUSH2 0x35F1 JUMP JUMPDEST SWAP6 POP POP PUSH1 0x20 SWAP4 DUP5 ADD SWAP4 SWAP3 SWAP1 SWAP3 ADD SWAP2 PUSH1 0x1 ADD PUSH2 0x36EE JUMP JUMPDEST POP POP POP POP DUP3 DUP2 SUB PUSH1 0x20 DUP5 ADD MSTORE PUSH2 0x36C5 DUP2 DUP6 DUP8 PUSH2 0x3484 JUMP JUMPDEST PUSH4 0x4E487B71 PUSH1 0xE0 SHL PUSH1 0x0 MSTORE PUSH1 0x21 PUSH1 0x4 MSTORE PUSH1 0x24 PUSH1 0x0 REVERT JUMPDEST PUSH1 0x0 PUSH1 0x3 DUP7 LT PUSH2 0x3783 JUMPI PUSH4 0x4E487B71 PUSH1 0xE0 SHL PUSH1 0x0 MSTORE PUSH1 0x21 PUSH1 0x4 MSTORE PUSH1 0x24 PUSH1 0x0 REVERT JUMPDEST DUP6 DUP3 MSTORE PUSH1 0x80 PUSH1 0x20 DUP4 ADD MSTORE PUSH2 0x379A PUSH1 0x80 DUP4 ADD DUP7 PUSH2 0x3388 JUMP JUMPDEST PUSH1 0x40 DUP4 ADD SWAP5 SWAP1 SWAP5 MSTORE POP PUSH1 0x60 ADD MSTORE SWAP3 SWAP2 POP POP JUMP JUMPDEST PUSH1 0x20 DUP2 MSTORE PUSH1 0x0 PUSH2 0x29B3 PUSH1 0x20 DUP4 ADD DUP5 PUSH2 0x3388 JUMP JUMPDEST PUSH1 0x40 DUP2 MSTORE PUSH1 0x0 PUSH2 0x37D3 PUSH1 0x40 DUP4 ADD DUP6 PUSH2 0x35F1 JUMP JUMPDEST SWAP1 POP DUP3 PUSH1 0x20 DUP4 ADD MSTORE SWAP4 SWAP3 POP POP POP JUMP JUMPDEST DUP1 MLOAD DUP1 MLOAD PUSH1 0x1 PUSH1 0x1 PUSH1 0xA0 SHL SUB AND DUP4 MSTORE PUSH1 0x20 DUP2 ADD MLOAD PUSH1 0x20 DUP5 ADD MSTORE PUSH1 0x40 DUP2 ADD MLOAD PUSH1 0x40 DUP5 ADD MSTORE PUSH1 0x60 DUP2 ADD MLOAD PUSH1 0x60 DUP5 ADD MSTORE PUSH1 0x80 DUP2 ADD MLOAD PUSH1 0x80 DUP5 ADD MSTORE PUSH1 0xA0 DUP2 ADD MLOAD PUSH1 0xA0 DUP5 ADD MSTORE PUSH1 0xC0 DUP2 ADD MLOAD PUSH1 0xC0 DUP5 ADD MSTORE PUSH1 0xE0 DUP2 ADD MLOAD PUSH2 0x3847 PUSH1 0xE0 DUP6 ADD DUP3 PUSH1 0x1 PUSH1 0x1 PUSH1 0xA0 SHL SUB AND SWAP1 MSTORE JUMP JUMPDEST POP PUSH2 0x100 DUP2 DUP2 ADD MLOAD SWAP1 DUP5 ADD MSTORE PUSH2 0x120 SWAP1 DUP2 ADD MLOAD SWAP1 DUP4 ADD MSTORE PUSH1 0x20 DUP2 ADD MLOAD PUSH2 0x140 DUP4 ADD MSTORE PUSH1 0x40 DUP2 ADD MLOAD PUSH2 0x160 DUP4 ADD MSTORE PUSH1 0x60 DUP2 ADD MLOAD PUSH2 0x180 DUP4 ADD MSTORE PUSH1 0x80 ADD MLOAD PUSH2 0x1A0 SWAP1 SWAP2 ADD MSTORE JUMP JUMPDEST PUSH1 0x0 PUSH2 0x200 DUP1 DUP4 MSTORE PUSH2 0x38A0 DUP2 DUP5 ADD DUP8 PUSH2 0x3388 JUMP JUMPDEST SWAP1 POP PUSH2 0x38AF PUSH1 0x20 DUP5 ADD DUP7 PUSH2 0x37E2 JUMP JUMPDEST DUP3 DUP2 SUB PUSH2 0x1E0 DUP5 ADD MSTORE PUSH2 0x38C2 DUP2 DUP6 PUSH2 0x3388 JUMP JUMPDEST SWAP7 SWAP6 POP POP POP POP POP POP JUMP JUMPDEST PUSH1 0x0 PUSH2 0x200 DUP1 DUP4 MSTORE PUSH2 0x38E1 DUP2 DUP5 ADD DUP8 DUP10 PUSH2 0x3484 JUMP JUMPDEST SWAP1 POP PUSH2 0x38F0 PUSH1 0x20 DUP5 ADD DUP7 PUSH2 0x37E2 JUMP JUMPDEST DUP3 DUP2 SUB PUSH2 0x1E0 DUP5 ADD MSTORE PUSH2 0x36C5 DUP2 DUP6 PUSH2 0x3388 JUMP JUMPDEST PUSH1 0x60 DUP2 MSTORE PUSH1 0x0 PUSH2 0x3916 PUSH1 0x60 DUP4 ADD DUP7 PUSH2 0x35F1 JUMP JUMPDEST PUSH1 0x20 DUP4 ADD SWAP5 SWAP1 SWAP5 MSTORE POP PUSH1 0x40 ADD MSTORE SWAP2 SWAP1 POP JUMP JUMPDEST PUSH1 0x0 PUSH1 0x20 DUP3 DUP5 SUB SLT ISZERO PUSH2 0x393A JUMPI PUSH1 0x0 DUP1 REVERT JUMPDEST POP MLOAD SWAP2 SWAP1 POP JUMP JUMPDEST DUP3 DUP2 MSTORE PUSH1 0x60 PUSH1 0x20 DUP3 ADD MSTORE PUSH1 0xD PUSH1 0x60 DUP3 ADD MSTORE PUSH32 0x4141323320726576657274656400000000000000000000000000000000000000 PUSH1 0x80 DUP3 ADD MSTORE PUSH1 0xA0 PUSH1 0x40 DUP3 ADD MSTORE PUSH1 0x0 PUSH2 0x22DC PUSH1 0xA0 DUP4 ADD DUP5 PUSH2 0x3388 JUMP JUMPDEST PUSH1 0x0 DUP1 PUSH1 0x40 DUP4 DUP6 SUB SLT ISZERO PUSH2 0x39A1 JUMPI PUSH1 0x0 DUP1 REVERT JUMPDEST DUP3 MLOAD PUSH8 0xFFFFFFFFFFFFFFFF DUP2 GT ISZERO PUSH2 0x39B8 JUMPI PUSH1 0x0 DUP1 REVERT JUMPDEST DUP4 ADD PUSH1 0x1F DUP2 ADD DUP6 SGT PUSH2 0x39C9 JUMPI PUSH1 0x0 DUP1 REVERT JUMPDEST DUP1 MLOAD PUSH2 0x39D7 PUSH2 0x305F DUP3 PUSH2 0x2E9D JUMP JUMPDEST DUP2 DUP2 MSTORE DUP7 PUSH1 0x20 DUP4 DUP6 ADD ADD GT ISZERO PUSH2 0x39EC JUMPI PUSH1 0x0 DUP1 REVERT JUMPDEST PUSH2 0x39FD DUP3 PUSH1 0x20 DUP4 ADD PUSH1 0x20 DUP7 ADD PUSH2 0x3364 JUMP JUMPDEST PUSH1 0x20 SWAP6 SWAP1 SWAP6 ADD MLOAD SWAP5 SWAP7 SWAP5 SWAP6 POP POP POP POP POP JUMP JUMPDEST DUP3 DUP2 MSTORE PUSH1 0x60 PUSH1 0x20 DUP3 ADD MSTORE PUSH1 0xD PUSH1 0x60 DUP3 ADD MSTORE PUSH32 0x4141333320726576657274656400000000000000000000000000000000000000 PUSH1 0x80 DUP3 ADD MSTORE PUSH1 0xA0 PUSH1 0x40 DUP3 ADD MSTORE PUSH1 0x0 PUSH2 0x22DC PUSH1 0xA0 DUP4 ADD DUP5 PUSH2 0x3388 JUMP JUMPDEST PUSH1 0x0 DUP1 DUP6 DUP6 GT ISZERO PUSH2 0x3A6C JUMPI PUSH1 0x0 DUP1 REVERT JUMPDEST DUP4 DUP7 GT ISZERO PUSH2 0x3A79 JUMPI PUSH1 0x0 DUP1 REVERT JUMPDEST POP POP DUP3 ADD SWAP4 SWAP2 SWAP1 SWAP3 SUB SWAP2 POP JUMP JUMPDEST PUSH12 0xFFFFFFFFFFFFFFFFFFFFFFFF NOT DUP2 CALLDATALOAD DUP2 DUP2 AND SWAP2 PUSH1 0x14 DUP6 LT ISZERO PUSH2 0x3AB3 JUMPI DUP1 DUP2 DUP7 PUSH1 0x14 SUB PUSH1 0x3 SHL SHL DUP4 AND AND SWAP3 POP JUMPDEST POP POP SWAP3 SWAP2 POP POP JUMP JUMPDEST PUSH32 0xFFFFFFFFFFFFFFFFFFFFFFFFFFFFFFFF00000000000000000000000000000000 DUP2 CALLDATALOAD DUP2 DUP2 AND SWAP2 PUSH1 0x10 DUP6 LT ISZERO PUSH2 0x3AB3 JUMPI PUSH1 0x10 SWAP5 SWAP1 SWAP5 SUB PUSH1 0x3 SHL DUP5 SWAP1 SHL AND SWAP1 SWAP3 AND SWAP3 SWAP2 POP POP JUMP INVALID LOG2 PUSH5 0x6970667358 0x22 SLT KECCAK256 POP PUSH14 0xC468CC738F887ADDB45C781DE0F9 0xF7 RETURNDATACOPY DUP13 SWAP8 0xB2 0xAA 0x29 0x22 PUSH21 0x788803B3572BFB64736F6C63430008180033608060 BLOCKHASH MSTORE CALLVALUE DUP1 ISZERO PUSH2 0x10 JUMPI PUSH1 0x0 DUP1 REVERT JUMPDEST POP PUSH2 0x200 DUP1 PUSH2 0x20 PUSH1 0x0 CODECOPY PUSH1 0x0 RETURN INVALID PUSH1 0x80 PUSH1 0x40 MSTORE CALLVALUE DUP1 ISZERO PUSH2 0x10 JUMPI PUSH1 0x0 DUP1 REVERT JUMPDEST POP PUSH1 0x4 CALLDATASIZE LT PUSH2 0x2B JUMPI PUSH1 0x0 CALLDATALOAD PUSH1 0xE0 SHR DUP1 PUSH4 0x570E1A36 EQ PUSH2 0x30 JUMPI JUMPDEST PUSH1 0x0 DUP1 REVERT JUMPDEST PUSH2 0x43 PUSH2 0x3E CALLDATASIZE PUSH1 0x4 PUSH2 0xF9 JUMP JUMPDEST PUSH2 0x6C JUMP JUMPDEST PUSH1 0x40 MLOAD PUSH20 0xFFFFFFFFFFFFFFFFFFFFFFFFFFFFFFFFFFFFFFFF SWAP1 SWAP2 AND DUP2 MSTORE PUSH1 0x20 ADD PUSH1 0x40 MLOAD DUP1 SWAP2 SUB SWAP1 RETURN JUMPDEST PUSH1 0x0 DUP1 PUSH2 0x7C PUSH1 0x14 DUP3 DUP6 DUP8 PUSH2 0x16B JUMP JUMPDEST PUSH2 0x85 SWAP2 PUSH2 0x195 JUMP JUMPDEST PUSH1 0x60 SHR SWAP1 POP PUSH1 0x0 PUSH2 0x99 DUP5 PUSH1 0x14 DUP2 DUP9 PUSH2 0x16B JUMP JUMPDEST DUP1 DUP1 PUSH1 0x1F ADD PUSH1 0x20 DUP1 SWAP2 DIV MUL PUSH1 0x20 ADD PUSH1 0x40 MLOAD SWAP1 DUP2 ADD PUSH1 0x40 MSTORE DUP1 SWAP4 SWAP3 SWAP2 SWAP1 DUP2 DUP2 MSTORE PUSH1 0x20 ADD DUP4 DUP4 DUP1 DUP3 DUP5 CALLDATACOPY PUSH1 0x0 SWAP3 ADD DUP3 SWAP1 MSTORE POP DUP5 MLOAD SWAP5 SWAP6 POP SWAP4 PUSH1 0x20 SWAP4 POP DUP5 SWAP3 POP SWAP1 POP DUP3 DUP6 ADD DUP3 DUP8 GAS CALL SWAP1 POP PUSH1 0x0 MLOAD SWAP4 POP DUP1 PUSH2 0xF0 JUMPI PUSH1 0x0 SWAP4 POP JUMPDEST POP POP POP SWAP3 SWAP2 POP POP JUMP JUMPDEST PUSH1 0x0 DUP1 PUSH1 0x20 DUP4 DUP6 SUB SLT ISZERO PUSH2 0x10C JUMPI PUSH1 0x0 DUP1 REVERT JUMPDEST DUP3 CALLDATALOAD PUSH8 0xFFFFFFFFFFFFFFFF DUP1 DUP3 GT ISZERO PUSH2 0x124 JUMPI PUSH1 0x0 DUP1 REVERT JUMPDEST DUP2 DUP6 ADD SWAP2 POP DUP6 PUSH1 0x1F DUP4 ADD SLT PUSH2 0x138 JUMPI PUSH1 0x0 DUP1 REVERT JUMPDEST DUP2 CALLDATALOAD DUP2 DUP2 GT ISZERO PUSH2 0x147 JUMPI PUSH1 0x0 DUP1 REVERT JUMPDEST DUP7 PUSH1 0x20 DUP3 DUP6 ADD ADD GT ISZERO PUSH2 0x159 JUMPI PUSH1 0x0 DUP1 REVERT JUMPDEST PUSH1 0x20 SWAP3 SWAP1 SWAP3 ADD SWAP7 SWAP2 SWAP6 POP SWAP1 SWAP4 POP POP POP POP JUMP JUMPDEST PUSH1 0x0 DUP1 DUP6 DUP6 GT ISZERO PUSH2 0x17B JUMPI PUSH1 0x0 DUP1 REVERT JUMPDEST DUP4 DUP7 GT ISZERO PUSH2 0x188 JUMPI PUSH1 0x0 DUP1 REVERT JUMPDEST POP POP DUP3 ADD SWAP4 SWAP2 SWAP1 SWAP3 SUB SWAP2 POP JUMP JUMPDEST PUSH12 0xFFFFFFFFFFFFFFFFFFFFFFFF NOT DUP2 CALLDATALOAD DUP2 DUP2 AND SWAP2 PUSH1 0x14 DUP6 LT ISZERO PUSH2 0x1C2 JUMPI DUP1 DUP2 DUP7 PUSH1 0x14 SUB PUSH1 0x3 SHL SHL DUP4 AND AND SWAP3 POP JUMPDEST POP POP SWAP3 SWAP2 POP POP JUMP INVALID LOG2 PUSH5 0x6970667358 0x22 SLT KECCAK256 0xC8 BLOCKHASH PUSH2 0x13E3 XOR DUP9 PC 0xB5 0x24 KECCAK256 EQ SWAP15 0xE1 SIGNEXTEND MLOAD CALLDATASIZE 0x27 PUSH31 0x83BC24D88D9C686AB851D0D2F964736F6C6343000818003300000000000000 "},"methodIdentifiers":{"addStake(uint32)":"0396cb60","balanceOf(address)":"70a08231","delegateAndRevert(address,bytes)":"850aaf62","depositTo(address)":"b760faf9","deposits(address)":"fc7e286d","getDepositInfo(address)":"5287ce12","getNonce(address,uint192)":"35567e1a","getSenderAddress(bytes)":"9b249f69","getUserOpHash((address,uint256,bytes,bytes,bytes32,uint256,bytes32,bytes,bytes))":"22cdde4c","handleAggregatedOps(((address,uint256,bytes,bytes,bytes32,uint256,bytes32,bytes,bytes)[],address,bytes)[],address)":"dbed18e0","handleOps((address,uint256,bytes,bytes,bytes32,uint256,bytes32,bytes,bytes)[],address)":"765e827f","incrementNonce(uint192)":"0bd28e3b","innerHandleOp(bytes,((address,uint256,uint256,uint256,uint256,uint256,uint256,address,uint256,uint256),bytes32,uint256,uint256,uint256),bytes)":"0042dc53","nonceSequenceNumber(address,uint192)":"1b2e01b8","supportsInterface(bytes4)":"01ffc9a7","unlockStake()":"bb9fe6bf","withdrawStake(address)":"c23a5cea","withdrawTo(address,uint256)":"205c2878"}}}}}