{"@account-abstraction/contracts/core/UserOperationLib.sol":{"UserOperationLib":{"abi":[{"inputs":[],"name":"PAYMASTER_DATA_OFFSET","outputs":[{"internalType":"uint256","name":"","type":"uint256"}],"stateMutability":"view","type":"function"},{"inputs":[],"name":"PAYMASTER_POSTOP_GAS_OFFSET","outputs":[{"internalType":"uint256","name":"","type":"uint256"}],"stateMutability":"view","type":"function"},{"inputs":[],"name":"PAYMASTER_VALIDATION_GAS_OFFSET","outputs":[{"internalType":"uint256","name":"","type":"uint256"}],"stateMutability":"view","type":"function"}],"evm":{"bytecode":{"linkReferences":{},"object":"60a9610039600b82828239805160001a60731461002c57634e487b7160e01b600052600060045260246000fd5b30600052607381538281f3fe730000000000000000000000000000000000000000301460806040526004361060475760003560e01c806325093e1b14604c578063b29a8ff4146065578063ede3150214606c575b600080fd5b6053602481565b60405190815260200160405180910390f35b6053601481565b605360348156fea2646970667358221220f45fb6d949cdba2b0b998b3522888448637090103086e6c0d6bfd9aad9d3f60064736f6c63430008180033","opcodes":"PUSH1 0xA9 PUSH2 0x39 PUSH1 0xB DUP3 DUP3 DUP3 CODECOPY DUP1 MLOAD PUSH1 0x0 BYTE PUSH1 0x73 EQ PUSH2 0x2C JUMPI PUSH4 0x4E487B71 PUSH1 0xE0 SHL PUSH1 0x0 MSTORE PUSH1 0x0 PUSH1 0x4 MSTORE PUSH1 0x24 PUSH1 0x0 REVERT JUMPDEST ADDRESS PUSH1 0x0 MSTORE PUSH1 0x73 DUP2 MSTORE8 DUP3 DUP2 RETURN INVALID PUSH20 0x0 ADDRESS EQ PUSH1 0x80 PUSH1 0x40 MSTORE PUSH1 0x4 CALLDATASIZE LT PUSH1 0x47 JUMPI PUSH1 0x0 CALLDATALOAD PUSH1 0xE0 SHR DUP1 PUSH4 0x25093E1B EQ PUSH1 0x4C JUMPI DUP1 PUSH4 0xB29A8FF4 EQ PUSH1 0x65 JUMPI DUP1 PUSH4 0xEDE31502 EQ PUSH1 0x6C JUMPI JUMPDEST PUSH1 0x0 DUP1 REVERT JUMPDEST PUSH1 0x53 PUSH1 0x24 DUP2 JUMP JUMPDEST PUSH1 0x40 MLOAD SWAP1 DUP2 MSTORE PUSH1 0x20 ADD PUSH1 0x40 MLOAD DUP1 SWAP2 SUB SWAP1 RETURN JUMPDEST PUSH1 0x53 PUSH1 0x14 DUP2 JUMP JUMPDEST PUSH1 0x53 PUSH1 0x34 DUP2 JUMP INVALID LOG2 PUSH5 0x6970667358 0x22 SLT KECCAK256 DELEGATECALL PUSH0 0xB6 0xD9 BLOBHASH 0xCD 0xBA 0x2B SIGNEXTEND SWAP10 DUP12 CALLDATALOAD 0x22 DUP9 DUP5 BASEFEE PUSH4 0x70901030 DUP7 0xE6 0xC0 0xD6 0xBF 0xD9 0xAA 0xD9 0xD3 0xF6 STOP PUSH5 0x736F6C6343 STOP ADDMOD XOR STOP CALLER "},"methodIdentifiers":{"PAYMASTER_DATA_OFFSET()":"ede31502","PAYMASTER_POSTOP_GAS_OFFSET()":"25093e1b","PAYMASTER_VALIDATION_GAS_OFFSET()":"b29a8ff4"}}}}}